{
  "contractName": "O10ElectionCommittee",
  "abi": [
    {
      "inputs": [
        {
          "internalType": "string",
          "name": "name",
          "type": "string"
        },
        {
          "internalType": "string",
          "name": "symbol",
          "type": "string"
        }
      ],
      "stateMutability": "nonpayable",
      "type": "constructor"
    },
    {
      "anonymous": false,
      "inputs": [
        {
          "indexed": true,
          "internalType": "address",
          "name": "owner",
          "type": "address"
        },
        {
          "indexed": true,
          "internalType": "address",
          "name": "approved",
          "type": "address"
        },
        {
          "indexed": true,
          "internalType": "uint256",
          "name": "tokenId",
          "type": "uint256"
        }
      ],
      "name": "Approval",
      "type": "event"
    },
    {
      "anonymous": false,
      "inputs": [
        {
          "indexed": true,
          "internalType": "address",
          "name": "owner",
          "type": "address"
        },
        {
          "indexed": true,
          "internalType": "address",
          "name": "operator",
          "type": "address"
        },
        {
          "indexed": false,
          "internalType": "bool",
          "name": "approved",
          "type": "bool"
        }
      ],
      "name": "ApprovalForAll",
      "type": "event"
    },
    {
      "anonymous": false,
      "inputs": [
        {
          "indexed": true,
          "internalType": "address",
          "name": "previousOwner",
          "type": "address"
        },
        {
          "indexed": true,
          "internalType": "address",
          "name": "newOwner",
          "type": "address"
        }
      ],
      "name": "OwnershipTransferred",
      "type": "event"
    },
    {
      "anonymous": false,
      "inputs": [
        {
          "indexed": true,
          "internalType": "address",
          "name": "from",
          "type": "address"
        },
        {
          "indexed": true,
          "internalType": "address",
          "name": "to",
          "type": "address"
        },
        {
          "indexed": true,
          "internalType": "uint256",
          "name": "tokenId",
          "type": "uint256"
        }
      ],
      "name": "Transfer",
      "type": "event"
    },
    {
      "inputs": [
        {
          "internalType": "address",
          "name": "to",
          "type": "address"
        },
        {
          "internalType": "uint256",
          "name": "tokenId",
          "type": "uint256"
        }
      ],
      "name": "approve",
      "outputs": [],
      "stateMutability": "nonpayable",
      "type": "function"
    },
    {
      "inputs": [
        {
          "internalType": "address",
          "name": "owner",
          "type": "address"
        }
      ],
      "name": "balanceOf",
      "outputs": [
        {
          "internalType": "uint256",
          "name": "",
          "type": "uint256"
        }
      ],
      "stateMutability": "view",
      "type": "function"
    },
    {
      "inputs": [],
      "name": "baseURI",
      "outputs": [
        {
          "internalType": "string",
          "name": "",
          "type": "string"
        }
      ],
      "stateMutability": "view",
      "type": "function"
    },
    {
      "inputs": [
        {
          "internalType": "uint256",
          "name": "tokenId",
          "type": "uint256"
        }
      ],
      "name": "burn",
      "outputs": [],
      "stateMutability": "nonpayable",
      "type": "function"
    },
    {
      "inputs": [
        {
          "internalType": "uint256",
          "name": "tokenId",
          "type": "uint256"
        }
      ],
      "name": "getApproved",
      "outputs": [
        {
          "internalType": "address",
          "name": "",
          "type": "address"
        }
      ],
      "stateMutability": "view",
      "type": "function"
    },
    {
      "inputs": [
        {
          "internalType": "address",
          "name": "owner",
          "type": "address"
        },
        {
          "internalType": "address",
          "name": "operator",
          "type": "address"
        }
      ],
      "name": "isApprovedForAll",
      "outputs": [
        {
          "internalType": "bool",
          "name": "",
          "type": "bool"
        }
      ],
      "stateMutability": "view",
      "type": "function"
    },
    {
      "inputs": [],
      "name": "name",
      "outputs": [
        {
          "internalType": "string",
          "name": "",
          "type": "string"
        }
      ],
      "stateMutability": "view",
      "type": "function"
    },
    {
      "inputs": [],
      "name": "owner",
      "outputs": [
        {
          "internalType": "address",
          "name": "",
          "type": "address"
        }
      ],
      "stateMutability": "view",
      "type": "function"
    },
    {
      "inputs": [
        {
          "internalType": "uint256",
          "name": "tokenId",
          "type": "uint256"
        }
      ],
      "name": "ownerOf",
      "outputs": [
        {
          "internalType": "address",
          "name": "",
          "type": "address"
        }
      ],
      "stateMutability": "view",
      "type": "function"
    },
    {
      "inputs": [],
      "name": "renounceOwnership",
      "outputs": [],
      "stateMutability": "nonpayable",
      "type": "function"
    },
    {
      "inputs": [
        {
          "internalType": "address",
          "name": "from",
          "type": "address"
        },
        {
          "internalType": "address",
          "name": "to",
          "type": "address"
        },
        {
          "internalType": "uint256",
          "name": "tokenId",
          "type": "uint256"
        }
      ],
      "name": "safeTransferFrom",
      "outputs": [],
      "stateMutability": "nonpayable",
      "type": "function"
    },
    {
      "inputs": [
        {
          "internalType": "address",
          "name": "from",
          "type": "address"
        },
        {
          "internalType": "address",
          "name": "to",
          "type": "address"
        },
        {
          "internalType": "uint256",
          "name": "tokenId",
          "type": "uint256"
        },
        {
          "internalType": "bytes",
          "name": "_data",
          "type": "bytes"
        }
      ],
      "name": "safeTransferFrom",
      "outputs": [],
      "stateMutability": "nonpayable",
      "type": "function"
    },
    {
      "inputs": [
        {
          "internalType": "address",
          "name": "operator",
          "type": "address"
        },
        {
          "internalType": "bool",
          "name": "approved",
          "type": "bool"
        }
      ],
      "name": "setApprovalForAll",
      "outputs": [],
      "stateMutability": "nonpayable",
      "type": "function"
    },
    {
      "inputs": [
        {
          "internalType": "bytes4",
          "name": "interfaceId",
          "type": "bytes4"
        }
      ],
      "name": "supportsInterface",
      "outputs": [
        {
          "internalType": "bool",
          "name": "",
          "type": "bool"
        }
      ],
      "stateMutability": "view",
      "type": "function"
    },
    {
      "inputs": [],
      "name": "symbol",
      "outputs": [
        {
          "internalType": "string",
          "name": "",
          "type": "string"
        }
      ],
      "stateMutability": "view",
      "type": "function"
    },
    {
      "inputs": [
        {
          "internalType": "uint256",
          "name": "index",
          "type": "uint256"
        }
      ],
      "name": "tokenByIndex",
      "outputs": [
        {
          "internalType": "uint256",
          "name": "",
          "type": "uint256"
        }
      ],
      "stateMutability": "view",
      "type": "function"
    },
    {
      "inputs": [
        {
          "internalType": "address",
          "name": "owner",
          "type": "address"
        },
        {
          "internalType": "uint256",
          "name": "index",
          "type": "uint256"
        }
      ],
      "name": "tokenOfOwnerByIndex",
      "outputs": [
        {
          "internalType": "uint256",
          "name": "",
          "type": "uint256"
        }
      ],
      "stateMutability": "view",
      "type": "function"
    },
    {
      "inputs": [
        {
          "internalType": "uint256",
          "name": "tokenId",
          "type": "uint256"
        }
      ],
      "name": "tokenURI",
      "outputs": [
        {
          "internalType": "string",
          "name": "",
          "type": "string"
        }
      ],
      "stateMutability": "view",
      "type": "function"
    },
    {
      "inputs": [],
      "name": "totalSupply",
      "outputs": [
        {
          "internalType": "uint256",
          "name": "",
          "type": "uint256"
        }
      ],
      "stateMutability": "view",
      "type": "function"
    },
    {
      "inputs": [
        {
          "internalType": "address",
          "name": "from",
          "type": "address"
        },
        {
          "internalType": "address",
          "name": "to",
          "type": "address"
        },
        {
          "internalType": "uint256",
          "name": "tokenId",
          "type": "uint256"
        }
      ],
      "name": "transferFrom",
      "outputs": [],
      "stateMutability": "nonpayable",
      "type": "function"
    },
    {
      "inputs": [
        {
          "internalType": "address",
          "name": "newOwner",
          "type": "address"
        }
      ],
      "name": "transferOwnership",
      "outputs": [],
      "stateMutability": "nonpayable",
      "type": "function"
    },
    {
      "inputs": [
        {
          "internalType": "string",
          "name": "name",
          "type": "string"
        },
        {
          "components": [
            {
              "internalType": "string",
              "name": "Name",
              "type": "string"
            },
            {
              "internalType": "bytes32",
              "name": "AssetId",
              "type": "bytes32"
            }
          ],
          "internalType": "struct O10ElectionCommittee.CandidateDetails[]",
          "name": "candidates",
          "type": "tuple[]"
        }
      ],
      "name": "registerPoll",
      "outputs": [
        {
          "internalType": "uint256",
          "name": "",
          "type": "uint256"
        }
      ],
      "stateMutability": "nonpayable",
      "type": "function"
    }
  ],
  "bytecode": "0x60806040523480156200001157600080fd5b5060405162003fc538038062003fc5833981810160405262000037919081019062000371565b8181620000516301ffc9a760e01b6200018660201b60201c565b81600690805190602001906200006992919062000266565b5080600790805190602001906200008292919062000266565b506200009b6380ac58cd60e01b6200018660201b60201c565b620000b3635b5e139f60e01b6200018660201b60201c565b620000cb63780e9d6360e01b6200018660201b60201c565b50506000620000df6200025e60201b60201c565b905080600a60006101000a81548173ffffffffffffffffffffffffffffffffffffffff021916908373ffffffffffffffffffffffffffffffffffffffff1602179055508073ffffffffffffffffffffffffffffffffffffffff16600073ffffffffffffffffffffffffffffffffffffffff167f8be0079c531659141344cd1fd0a4f28419497f9722a3daafe3b4186f6b6457e060405160405180910390a3505050620004ea565b63ffffffff60e01b817bffffffffffffffffffffffffffffffffffffffffffffffffffffffff19161415620001f2576040517f08c379a0000000000000000000000000000000000000000000000000000000008152600401620001e99062000426565b60405180910390fd5b6001600080837bffffffffffffffffffffffffffffffffffffffffffffffffffffffff19167bffffffffffffffffffffffffffffffffffffffffffffffffffffffff1916815260200190815260200160002060006101000a81548160ff02191690831515021790555050565b600033905090565b828054600181600116156101000203166002900490600052602060002090601f016020900481019282601f10620002a957805160ff1916838001178555620002da565b82800160010185558215620002da579182015b82811115620002d9578251825591602001919060010190620002bc565b5b509050620002e99190620002ed565b5090565b6200031291905b808211156200030e576000816000905550600101620002f4565b5090565b90565b600082601f8301126200032757600080fd5b81516200033e620003388262000476565b62000448565b915080825260208301602083018583830111156200035b57600080fd5b62000368838284620004b4565b50505092915050565b600080604083850312156200038557600080fd5b600083015167ffffffffffffffff811115620003a057600080fd5b620003ae8582860162000315565b925050602083015167ffffffffffffffff811115620003cc57600080fd5b620003da8582860162000315565b9150509250929050565b6000620003f3601c83620004a3565b91507f4552433136353a20696e76616c696420696e74657266616365206964000000006000830152602082019050919050565b600060208201905081810360008301526200044181620003e4565b9050919050565b6000604051905081810181811067ffffffffffffffff821117156200046c57600080fd5b8060405250919050565b600067ffffffffffffffff8211156200048e57600080fd5b601f19601f8301169050602081019050919050565b600082825260208201905092915050565b60005b83811015620004d4578082015181840152602081019050620004b7565b83811115620004e4576000848401525b50505050565b613acb80620004fa6000396000f3fe608060405234801561001057600080fd5b50600436106101425760003560e01c80636352211e116100b857806395d89b411161007c57806395d89b4114610389578063a22cb465146103a7578063b88d4fde146103c3578063c87b56dd146103df578063e985e9c51461040f578063f2fde38b1461043f57610142565b80636352211e146102e35780636c0360eb1461031357806370a0823114610331578063715018a6146103615780638da5cb5b1461036b57610142565b806321ff43bc1161010a57806321ff43bc146101ff57806323b872dd1461022f5780632f745c591461024b57806342842e0e1461027b57806342966c68146102975780634f6ccce7146102b357610142565b806301ffc9a71461014757806306fdde0314610177578063081812fc14610195578063095ea7b3146101c557806318160ddd146101e1575b600080fd5b610161600480360361015c9190810190612a28565b61045b565b60405161016e91906134e5565b60405180910390f35b61017f6104c2565b60405161018c9190613500565b60405180910390f35b6101af60048036036101aa9190810190612ae6565b610564565b6040516101bc919061347e565b60405180910390f35b6101df60048036036101da91908101906129ec565b6105e9565b005b6101e9610701565b6040516101f69190613782565b60405180910390f35b61021960048036036102149190810190612a7a565b610712565b6040516102269190613782565b60405180910390f35b610249600480360361024491908101906128e6565b610a0a565b005b610265600480360361026091908101906129ec565b610a6a565b6040516102729190613782565b60405180910390f35b610295600480360361029091908101906128e6565b610ac5565b005b6102b160048036036102ac9190810190612ae6565b610ae5565b005b6102cd60048036036102c89190810190612ae6565b610b41565b6040516102da9190613782565b60405180910390f35b6102fd60048036036102f89190810190612ae6565b610b64565b60405161030a919061347e565b60405180910390f35b61031b610b9b565b6040516103289190613500565b60405180910390f35b61034b60048036036103469190810190612881565b610c3d565b6040516103589190613782565b60405180910390f35b610369610cfc565b005b610373610e54565b604051610380919061347e565b60405180910390f35b610391610e7e565b60405161039e9190613500565b60405180910390f35b6103c160048036036103bc91908101906129b0565b610f20565b005b6103dd60048036036103d89190810190612935565b6110a1565b005b6103f960048036036103f49190810190612ae6565b611103565b6040516104069190613500565b60405180910390f35b610429600480360361042491908101906128aa565b61128e565b60405161043691906134e5565b60405180910390f35b61045960048036036104549190810190612881565b611322565b005b6000806000837bffffffffffffffffffffffffffffffffffffffffffffffffffffffff19167bffffffffffffffffffffffffffffffffffffffffffffffffffffffff1916815260200190815260200160002060009054906101000a900460ff169050919050565b606060068054600181600116156101000203166002900480601f01602080910402602001604051908101604052809291908181526020018280546001816001161561010002031660029004801561055a5780601f1061052f5761010080835404028352916020019161055a565b820191906000526020600020905b81548152906001019060200180831161053d57829003601f168201915b5050505050905090565b600061056f826114e9565b6105ae576040517f08c379a00000000000000000000000000000000000000000000000000000000081526004016105a590613662565b60405180910390fd5b6004600083815260200190815260200160002060009054906101000a900473ffffffffffffffffffffffffffffffffffffffff169050919050565b60006105f482610b64565b90508073ffffffffffffffffffffffffffffffffffffffff168373ffffffffffffffffffffffffffffffffffffffff161415610665576040517f08c379a000000000000000000000000000000000000000000000000000000000815260040161065c906136e2565b60405180910390fd5b8073ffffffffffffffffffffffffffffffffffffffff16610684611506565b73ffffffffffffffffffffffffffffffffffffffff1614806106b357506106b2816106ad611506565b61128e565b5b6106f2576040517f08c379a00000000000000000000000000000000000000000000000000000000081526004016106e990613602565b60405180910390fd5b6106fc838361150e565b505050565b600061070d60026115c7565b905090565b600080600d84604051610725919061342c565b908152602001604051809103902090508060000160009054906101000a900460ff1615610787576040517f08c379a000000000000000000000000000000000000000000000000000000000815260040161077e90613722565b60405180910390fd5b60018160000160006101000a81548160ff021916908315150217905550838160020190805190602001906107bc9291906124c2565b5060008090505b83518110156109df5760008090505b82600301805490508110156108fc578482815181106107ed57fe5b6020026020010151600001516040516020016108099190613415565b6040516020818303038152906040528051906020012083600301828154811061082e57fe5b90600052602060002090600402016002016000016040516020016108529190613443565b60405160208183030381529060405280519060200120141580156108b0575084828151811061087d57fe5b60200260200101516020015183600301828154811061089857fe5b90600052602060002090600402016002016001015414155b6108ef576040517f08c379a00000000000000000000000000000000000000000000000000000000081526004016108e690613542565b60405180910390fd5b80806001019150506107d2565b506000610909600c6115dc565b905082600301604051806060016040528083815260200160011515815260200187858151811061093557fe5b602002602001015181525090806001815401808255809150506001900390600052602060002090600402016000909190919091506000820151816000015560208201518160010160006101000a81548160ff02191690831515021790555060408201518160020160008201518160000190805190602001906109b8929190612542565b5060208201518160010155505050506109d1600c6115ea565b5080806001019150506107c3565b506109ea600b6115dc565b81600101819055506109fc600b6115ea565b806001015491505092915050565b610a1b610a15611506565b82611600565b610a5a576040517f08c379a0000000000000000000000000000000000000000000000000000000008152600401610a5190613702565b60405180910390fd5b610a658383836116de565b505050565b6000610abd82600160008673ffffffffffffffffffffffffffffffffffffffff1673ffffffffffffffffffffffffffffffffffffffff1681526020019081526020016000206118f590919063ffffffff16565b905092915050565b610ae0838383604051806020016040528060008152506110a1565b505050565b610af6610af0611506565b82611600565b610b35576040517f08c379a0000000000000000000000000000000000000000000000000000000008152600401610b2c90613762565b60405180910390fd5b610b3e8161190f565b50565b600080610b58836002611a4990919063ffffffff16565b50905080915050919050565b6000610b9482604051806060016040528060298152602001613a6d602991396002611a789092919063ffffffff16565b9050919050565b606060098054600181600116156101000203166002900480601f016020809104026020016040519081016040528092919081815260200182805460018160011615610100020316600290048015610c335780601f10610c0857610100808354040283529160200191610c33565b820191906000526020600020905b815481529060010190602001808311610c1657829003601f168201915b5050505050905090565b60008073ffffffffffffffffffffffffffffffffffffffff168273ffffffffffffffffffffffffffffffffffffffff161415610cae576040517f08c379a0000000000000000000000000000000000000000000000000000000008152600401610ca590613622565b60405180910390fd5b610cf5600160008473ffffffffffffffffffffffffffffffffffffffff1673ffffffffffffffffffffffffffffffffffffffff168152602001908152602001600020611a97565b9050919050565b610d04611506565b73ffffffffffffffffffffffffffffffffffffffff16600a60009054906101000a900473ffffffffffffffffffffffffffffffffffffffff1673ffffffffffffffffffffffffffffffffffffffff1614610d93576040517f08c379a0000000000000000000000000000000000000000000000000000000008152600401610d8a90613682565b60405180910390fd5b600073ffffffffffffffffffffffffffffffffffffffff16600a60009054906101000a900473ffffffffffffffffffffffffffffffffffffffff1673ffffffffffffffffffffffffffffffffffffffff167f8be0079c531659141344cd1fd0a4f28419497f9722a3daafe3b4186f6b6457e060405160405180910390a36000600a60006101000a81548173ffffffffffffffffffffffffffffffffffffffff021916908373ffffffffffffffffffffffffffffffffffffffff160217905550565b6000600a60009054906101000a900473ffffffffffffffffffffffffffffffffffffffff16905090565b606060078054600181600116156101000203166002900480601f016020809104026020016040519081016040528092919081815260200182805460018160011615610100020316600290048015610f165780601f10610eeb57610100808354040283529160200191610f16565b820191906000526020600020905b815481529060010190602001808311610ef957829003601f168201915b5050505050905090565b610f28611506565b73ffffffffffffffffffffffffffffffffffffffff168273ffffffffffffffffffffffffffffffffffffffff161415610f96576040517f08c379a0000000000000000000000000000000000000000000000000000000008152600401610f8d906135c2565b60405180910390fd5b8060056000610fa3611506565b73ffffffffffffffffffffffffffffffffffffffff1673ffffffffffffffffffffffffffffffffffffffff16815260200190815260200160002060008473ffffffffffffffffffffffffffffffffffffffff1673ffffffffffffffffffffffffffffffffffffffff16815260200190815260200160002060006101000a81548160ff0219169083151502179055508173ffffffffffffffffffffffffffffffffffffffff16611050611506565b73ffffffffffffffffffffffffffffffffffffffff167f17307eab39ab6107e8899845ad3d59bd9653f200f220920489ca2b5937696c318360405161109591906134e5565b60405180910390a35050565b6110b26110ac611506565b83611600565b6110f1576040517f08c379a00000000000000000000000000000000000000000000000000000000081526004016110e890613702565b60405180910390fd5b6110fd84848484611aac565b50505050565b606061110e826114e9565b61114d576040517f08c379a0000000000000000000000000000000000000000000000000000000008152600401611144906136c2565b60405180910390fd5b6060600860008481526020019081526020016000208054600181600116156101000203166002900480601f0160208091040260200160405190810160405280929190818152602001828054600181600116156101000203166002900480156111f65780601f106111cb576101008083540402835291602001916111f6565b820191906000526020600020905b8154815290600101906020018083116111d957829003601f168201915b505050505090506000600980546001816001161561010002031660029004905014156112255780915050611289565b60008151111561125a5760098160405160200161124392919061345a565b604051602081830303815290604052915050611289565b600961126584611b08565b60405160200161127692919061345a565b6040516020818303038152906040529150505b919050565b6000600560008473ffffffffffffffffffffffffffffffffffffffff1673ffffffffffffffffffffffffffffffffffffffff16815260200190815260200160002060008373ffffffffffffffffffffffffffffffffffffffff1673ffffffffffffffffffffffffffffffffffffffff16815260200190815260200160002060009054906101000a900460ff16905092915050565b61132a611506565b73ffffffffffffffffffffffffffffffffffffffff16600a60009054906101000a900473ffffffffffffffffffffffffffffffffffffffff1673ffffffffffffffffffffffffffffffffffffffff16146113b9576040517f08c379a00000000000000000000000000000000000000000000000000000000081526004016113b090613682565b60405180910390fd5b600073ffffffffffffffffffffffffffffffffffffffff168173ffffffffffffffffffffffffffffffffffffffff161415611429576040517f08c379a000000000000000000000000000000000000000000000000000000000815260040161142090613582565b60405180910390fd5b8073ffffffffffffffffffffffffffffffffffffffff16600a60009054906101000a900473ffffffffffffffffffffffffffffffffffffffff1673ffffffffffffffffffffffffffffffffffffffff167f8be0079c531659141344cd1fd0a4f28419497f9722a3daafe3b4186f6b6457e060405160405180910390a380600a60006101000a81548173ffffffffffffffffffffffffffffffffffffffff021916908373ffffffffffffffffffffffffffffffffffffffff16021790555050565b60006114ff826002611c3890919063ffffffff16565b9050919050565b600033905090565b816004600083815260200190815260200160002060006101000a81548173ffffffffffffffffffffffffffffffffffffffff021916908373ffffffffffffffffffffffffffffffffffffffff160217905550808273ffffffffffffffffffffffffffffffffffffffff1661158183610b64565b73ffffffffffffffffffffffffffffffffffffffff167f8c5be1e5ebec7d5bd14f71427d1e84f3dd0314c0f7b2291e5b200ac8c7c3b92560405160405180910390a45050565b60006115d582600001611c52565b9050919050565b600081600001549050919050565b6001816000016000828254019250508190555050565b600061160b826114e9565b61164a576040517f08c379a0000000000000000000000000000000000000000000000000000000008152600401611641906135e2565b60405180910390fd5b600061165583610b64565b90508073ffffffffffffffffffffffffffffffffffffffff168473ffffffffffffffffffffffffffffffffffffffff1614806116c457508373ffffffffffffffffffffffffffffffffffffffff166116ac84610564565b73ffffffffffffffffffffffffffffffffffffffff16145b806116d557506116d4818561128e565b5b91505092915050565b8273ffffffffffffffffffffffffffffffffffffffff166116fe82610b64565b73ffffffffffffffffffffffffffffffffffffffff1614611754576040517f08c379a000000000000000000000000000000000000000000000000000000000815260040161174b906136a2565b60405180910390fd5b600073ffffffffffffffffffffffffffffffffffffffff168273ffffffffffffffffffffffffffffffffffffffff1614156117c4576040517f08c379a00000000000000000000000000000000000000000000000000000000081526004016117bb906135a2565b60405180910390fd5b6117cf838383611c63565b6117da60008261150e565b61182b81600160008673ffffffffffffffffffffffffffffffffffffffff1673ffffffffffffffffffffffffffffffffffffffff168152602001908152602001600020611c6890919063ffffffff16565b5061187d81600160008573ffffffffffffffffffffffffffffffffffffffff1673ffffffffffffffffffffffffffffffffffffffff168152602001908152602001600020611c8290919063ffffffff16565b5061189481836002611c9c9092919063ffffffff16565b50808273ffffffffffffffffffffffffffffffffffffffff168473ffffffffffffffffffffffffffffffffffffffff167fddf252ad1be2c89b69c2b068fc378daa952ba7f163c4a11628f55a4df523b3ef60405160405180910390a4505050565b60006119048360000183611cd1565b60001c905092915050565b600061191a82610b64565b905061192881600084611c63565b61193360008361150e565b600060086000848152602001908152602001600020805460018160011615610100020316600290049050146119825760086000838152602001908152602001600020600061198191906125c2565b5b6119d382600160008473ffffffffffffffffffffffffffffffffffffffff1673ffffffffffffffffffffffffffffffffffffffff168152602001908152602001600020611c6890919063ffffffff16565b506119e8826002611d3e90919063ffffffff16565b5081600073ffffffffffffffffffffffffffffffffffffffff168273ffffffffffffffffffffffffffffffffffffffff167fddf252ad1be2c89b69c2b068fc378daa952ba7f163c4a11628f55a4df523b3ef60405160405180910390a45050565b600080600080611a5c8660000186611d58565b915091508160001c8160001c8090509350935050509250929050565b6000611a8b846000018460001b84611ddb565b60001c90509392505050565b6000611aa582600001611e6c565b9050919050565b611ab78484846116de565b611ac384848484611e7d565b611b02576040517f08c379a0000000000000000000000000000000000000000000000000000000008152600401611af990613562565b60405180910390fd5b50505050565b60606000821415611b50576040518060400160405280600181526020017f30000000000000000000000000000000000000000000000000000000000000008152509050611c33565b600082905060005b60008214611b7a578080600101915050600a8281611b7257fe5b049150611b58565b6060816040519080825280601f01601f191660200182016040528015611baf5781602001600182028038833980820191505090505b50905060006001830390508593505b60008414611c2b57600a8481611bd057fe5b0660300160f81b82828060019003935081518110611bea57fe5b60200101907effffffffffffffffffffffffffffffffffffffffffffffffffffffffffffff1916908160001a905350600a8481611c2357fe5b049350611bbe565b819450505050505b919050565b6000611c4a836000018360001b611fe1565b905092915050565b600081600001805490509050919050565b505050565b6000611c7a836000018360001b612004565b905092915050565b6000611c94836000018360001b6120ec565b905092915050565b6000611cc8846000018460001b8473ffffffffffffffffffffffffffffffffffffffff1660001b61215c565b90509392505050565b600081836000018054905011611d1c576040517f08c379a0000000000000000000000000000000000000000000000000000000008152600401611d1390613522565b60405180910390fd5b826000018281548110611d2b57fe5b9060005260206000200154905092915050565b6000611d50836000018360001b612238565b905092915050565b60008082846000018054905011611da4576040517f08c379a0000000000000000000000000000000000000000000000000000000008152600401611d9b90613642565b60405180910390fd5b6000846000018481548110611db557fe5b906000526020600020906002020190508060000154816001015492509250509250929050565b60008084600101600085815260200190815260200160002054905060008114158390611e3d576040517f08c379a0000000000000000000000000000000000000000000000000000000008152600401611e349190613500565b60405180910390fd5b50846000016001820381548110611e5057fe5b9060005260206000209060020201600101549150509392505050565b600081600001805490509050919050565b6000611e9e8473ffffffffffffffffffffffffffffffffffffffff16612351565b611eab5760019050611fd9565b6060611f7263150b7a0260e01b611ec0611506565b888787604051602401611ed69493929190613499565b604051602081830303815290604052907bffffffffffffffffffffffffffffffffffffffffffffffffffffffff19166020820180517bffffffffffffffffffffffffffffffffffffffffffffffffffffffff8381831617835250505050604051806060016040528060328152602001613a3b603291398773ffffffffffffffffffffffffffffffffffffffff166123649092919063ffffffff16565b9050600081806020019051611f8a9190810190612a51565b905063150b7a0260e01b7bffffffffffffffffffffffffffffffffffffffffffffffffffffffff1916817bffffffffffffffffffffffffffffffffffffffffffffffffffffffff191614925050505b949350505050565b600080836001016000848152602001908152602001600020541415905092915050565b600080836001016000848152602001908152602001600020549050600081146120e0576000600182039050600060018660000180549050039050600086600001828154811061204f57fe5b906000526020600020015490508087600001848154811061206c57fe5b90600052602060002001819055506001830187600101600083815260200190815260200160002081905550866000018054806120a457fe5b600190038181906000526020600020016000905590558660010160008781526020019081526020016000206000905560019450505050506120e6565b60009150505b92915050565b60006120f8838361237c565b612151578260000182908060018154018082558091505060019003906000526020600020016000909190919091505582600001805490508360010160008481526020019081526020016000208190555060019050612156565b600090505b92915050565b600080846001016000858152602001908152602001600020549050600081141561220357846000016040518060400160405280868152602001858152509080600181540180825580915050600190039060005260206000209060020201600090919091909150600082015181600001556020820151816001015550508460000180549050856001016000868152602001908152602001600020819055506001915050612231565b8285600001600183038154811061221657fe5b90600052602060002090600202016001018190555060009150505b9392505050565b60008083600101600084815260200190815260200160002054905060008114612345576000600182039050600060018660000180549050039050600086600001828154811061228357fe5b90600052602060002090600202019050808760000184815481106122a357fe5b90600052602060002090600202016000820154816000015560018201548160010155905050600183018760010160008360000154815260200190815260200160002081905550866000018054806122f657fe5b600190038181906000526020600020906002020160008082016000905560018201600090555050905586600101600087815260200190815260200160002060009055600194505050505061234b565b60009150505b92915050565b600080823b905060008111915050919050565b6060612373848460008561239f565b90509392505050565b600080836001016000848152602001908152602001600020541415905092915050565b60606123aa85612351565b6123e9576040517f08c379a00000000000000000000000000000000000000000000000000000000081526004016123e090613742565b60405180910390fd5b600060608673ffffffffffffffffffffffffffffffffffffffff16858760405161241391906133fe565b60006040518083038185875af1925050503d8060008114612450576040519150601f19603f3d011682016040523d82523d6000602084013e612455565b606091505b5091509150811561246a5780925050506124ba565b60008151111561247d5780518082602001fd5b836040517f08c379a00000000000000000000000000000000000000000000000000000000081526004016124b19190613500565b60405180910390fd5b949350505050565b828054600181600116156101000203166002900490600052602060002090601f016020900481019282601f1061250357805160ff1916838001178555612531565b82800160010185558215612531579182015b82811115612530578251825591602001919060010190612515565b5b50905061253e919061260a565b5090565b828054600181600116156101000203166002900490600052602060002090601f016020900481019282601f1061258357805160ff19168380011785556125b1565b828001600101855582156125b1579182015b828111156125b0578251825591602001919060010190612595565b5b5090506125be919061260a565b5090565b50805460018160011615610100020316600290046000825580601f106125e85750612607565b601f016020900490600052602060002090810190612606919061260a565b5b50565b61262c91905b80821115612628576000816000905550600101612610565b5090565b90565b60008135905061263e816139c7565b92915050565b600082601f83011261265557600080fd5b8135612668612663826137ca565b61379d565b9150818183526020840193506020810190508360005b838110156126ae57813586016126948882612808565b84526020840193506020830192505060018101905061267e565b5050505092915050565b6000813590506126c7816139de565b92915050565b6000813590506126dc816139f5565b92915050565b6000813590506126f181613a0c565b92915050565b60008151905061270681613a0c565b92915050565b600082601f83011261271d57600080fd5b813561273061272b826137f2565b61379d565b9150808252602083016020830185838301111561274c57600080fd5b612757838284613974565b50505092915050565b600082601f83011261277157600080fd5b813561278461277f8261381e565b61379d565b915080825260208301602083018583830111156127a057600080fd5b6127ab838284613974565b50505092915050565b600082601f8301126127c557600080fd5b81356127d86127d38261384a565b61379d565b915080825260208301602083018583830111156127f457600080fd5b6127ff838284613974565b50505092915050565b60006040828403121561281a57600080fd5b612824604061379d565b9050600082013567ffffffffffffffff81111561284057600080fd5b61284c84828501612760565b6000830152506020612860848285016126cd565b60208301525092915050565b60008135905061287b81613a23565b92915050565b60006020828403121561289357600080fd5b60006128a18482850161262f565b91505092915050565b600080604083850312156128bd57600080fd5b60006128cb8582860161262f565b92505060206128dc8582860161262f565b9150509250929050565b6000806000606084860312156128fb57600080fd5b60006129098682870161262f565b935050602061291a8682870161262f565b925050604061292b8682870161286c565b9150509250925092565b6000806000806080858703121561294b57600080fd5b60006129598782880161262f565b945050602061296a8782880161262f565b935050604061297b8782880161286c565b925050606085013567ffffffffffffffff81111561299857600080fd5b6129a48782880161270c565b91505092959194509250565b600080604083850312156129c357600080fd5b60006129d18582860161262f565b92505060206129e2858286016126b8565b9150509250929050565b600080604083850312156129ff57600080fd5b6000612a0d8582860161262f565b9250506020612a1e8582860161286c565b9150509250929050565b600060208284031215612a3a57600080fd5b6000612a48848285016126e2565b91505092915050565b600060208284031215612a6357600080fd5b6000612a71848285016126f7565b91505092915050565b60008060408385031215612a8d57600080fd5b600083013567ffffffffffffffff811115612aa757600080fd5b612ab3858286016127b4565b925050602083013567ffffffffffffffff811115612ad057600080fd5b612adc85828601612644565b9150509250929050565b600060208284031215612af857600080fd5b6000612b068482850161286c565b91505092915050565b612b18816138f6565b82525050565b612b27816138e4565b82525050565b612b3681613908565b82525050565b6000612b478261388b565b612b5181856138ac565b9350612b61818560208601613983565b612b6a816139b6565b840191505092915050565b6000612b808261388b565b612b8a81856138bd565b9350612b9a818560208601613983565b80840191505092915050565b6000612bb1826138a1565b612bbb81856138c8565b9350612bcb818560208601613983565b612bd4816139b6565b840191505092915050565b6000612bea826138a1565b612bf481856138d9565b9350612c04818560208601613983565b80840191505092915050565b6000612c1b82613896565b612c2581856138d9565b9350612c35818560208601613983565b80840191505092915050565b600081546001811660008114612c5e5760018114612c8357612cc7565b607f6002830416612c6f81876138d9565b955060ff1983168652808601935050612cc7565b60028204612c9181876138d9565b9550612c9c85613876565b60005b82811015612cbe57815481890152600182019150602081019050612c9f565b82880195505050505b505092915050565b6000612cdc6022836138c8565b91507f456e756d657261626c655365743a20696e646578206f7574206f6620626f756e60008301527f64730000000000000000000000000000000000000000000000000000000000006020830152604082019050919050565b6000612d426028836138c8565b91507f4f6e65206f662063616e6469646174657320686173206475706c69636174656460008301527f2064657461696c730000000000000000000000000000000000000000000000006020830152604082019050919050565b6000612da86032836138c8565b91507f4552433732313a207472616e7366657220746f206e6f6e20455243373231526560008301527f63656976657220696d706c656d656e74657200000000000000000000000000006020830152604082019050919050565b6000612e0e6026836138c8565b91507f4f776e61626c653a206e6577206f776e657220697320746865207a65726f206160008301527f64647265737300000000000000000000000000000000000000000000000000006020830152604082019050919050565b6000612e746024836138c8565b91507f4552433732313a207472616e7366657220746f20746865207a65726f2061646460008301527f72657373000000000000000000000000000000000000000000000000000000006020830152604082019050919050565b6000612eda6019836138c8565b91507f4552433732313a20617070726f766520746f2063616c6c6572000000000000006000830152602082019050919050565b6000612f1a602c836138c8565b91507f4552433732313a206f70657261746f7220717565727920666f72206e6f6e657860008301527f697374656e7420746f6b656e00000000000000000000000000000000000000006020830152604082019050919050565b6000612f806038836138c8565b91507f4552433732313a20617070726f76652063616c6c6572206973206e6f74206f7760008301527f6e6572206e6f7220617070726f76656420666f7220616c6c00000000000000006020830152604082019050919050565b6000612fe6602a836138c8565b91507f4552433732313a2062616c616e636520717565727920666f7220746865207a6560008301527f726f2061646472657373000000000000000000000000000000000000000000006020830152604082019050919050565b600061304c6022836138c8565b91507f456e756d657261626c654d61703a20696e646578206f7574206f6620626f756e60008301527f64730000000000000000000000000000000000000000000000000000000000006020830152604082019050919050565b60006130b2602c836138c8565b91507f4552433732313a20617070726f76656420717565727920666f72206e6f6e657860008301527f697374656e7420746f6b656e00000000000000000000000000000000000000006020830152604082019050919050565b60006131186020836138c8565b91507f4f776e61626c653a2063616c6c6572206973206e6f7420746865206f776e65726000830152602082019050919050565b60006131586029836138c8565b91507f4552433732313a207472616e73666572206f6620746f6b656e2074686174206960008301527f73206e6f74206f776e00000000000000000000000000000000000000000000006020830152604082019050919050565b60006131be602f836138c8565b91507f4552433732314d657461646174613a2055524920717565727920666f72206e6f60008301527f6e6578697374656e7420746f6b656e00000000000000000000000000000000006020830152604082019050919050565b60006132246021836138c8565b91507f4552433732313a20617070726f76616c20746f2063757272656e74206f776e6560008301527f72000000000000000000000000000000000000000000000000000000000000006020830152604082019050919050565b600061328a6031836138c8565b91507f4552433732313a207472616e736665722063616c6c6572206973206e6f74206f60008301527f776e6572206e6f7220617070726f7665640000000000000000000000000000006020830152604082019050919050565b60006132f06026836138c8565b91507f506f6c6c20776974682074686973206e616d6520616c7265616479207265676960008301527f73746572656400000000000000000000000000000000000000000000000000006020830152604082019050919050565b6000613356601d836138c8565b91507f416464726573733a2063616c6c20746f206e6f6e2d636f6e74726163740000006000830152602082019050919050565b60006133966030836138c8565b91507f4552433732314275726e61626c653a2063616c6c6572206973206e6f74206f7760008301527f6e6572206e6f7220617070726f766564000000000000000000000000000000006020830152604082019050919050565b6133f88161396a565b82525050565b600061340a8284612b75565b915081905092915050565b60006134218284612c10565b915081905092915050565b60006134388284612bdf565b915081905092915050565b600061344f8284612c41565b915081905092915050565b60006134668285612c41565b91506134728284612bdf565b91508190509392505050565b60006020820190506134936000830184612b1e565b92915050565b60006080820190506134ae6000830187612b0f565b6134bb6020830186612b1e565b6134c860408301856133ef565b81810360608301526134da8184612b3c565b905095945050505050565b60006020820190506134fa6000830184612b2d565b92915050565b6000602082019050818103600083015261351a8184612ba6565b905092915050565b6000602082019050818103600083015261353b81612ccf565b9050919050565b6000602082019050818103600083015261355b81612d35565b9050919050565b6000602082019050818103600083015261357b81612d9b565b9050919050565b6000602082019050818103600083015261359b81612e01565b9050919050565b600060208201905081810360008301526135bb81612e67565b9050919050565b600060208201905081810360008301526135db81612ecd565b9050919050565b600060208201905081810360008301526135fb81612f0d565b9050919050565b6000602082019050818103600083015261361b81612f73565b9050919050565b6000602082019050818103600083015261363b81612fd9565b9050919050565b6000602082019050818103600083015261365b8161303f565b9050919050565b6000602082019050818103600083015261367b816130a5565b9050919050565b6000602082019050818103600083015261369b8161310b565b9050919050565b600060208201905081810360008301526136bb8161314b565b9050919050565b600060208201905081810360008301526136db816131b1565b9050919050565b600060208201905081810360008301526136fb81613217565b9050919050565b6000602082019050818103600083015261371b8161327d565b9050919050565b6000602082019050818103600083015261373b816132e3565b9050919050565b6000602082019050818103600083015261375b81613349565b9050919050565b6000602082019050818103600083015261377b81613389565b9050919050565b600060208201905061379760008301846133ef565b92915050565b6000604051905081810181811067ffffffffffffffff821117156137c057600080fd5b8060405250919050565b600067ffffffffffffffff8211156137e157600080fd5b602082029050602081019050919050565b600067ffffffffffffffff82111561380957600080fd5b601f19601f8301169050602081019050919050565b600067ffffffffffffffff82111561383557600080fd5b601f19601f8301169050602081019050919050565b600067ffffffffffffffff82111561386157600080fd5b601f19601f8301169050602081019050919050565b60008190508160005260206000209050919050565b600081519050919050565b600081519050919050565b600081519050919050565b600082825260208201905092915050565b600081905092915050565b600082825260208201905092915050565b600081905092915050565b60006138ef8261394a565b9050919050565b60006139018261394a565b9050919050565b60008115159050919050565b6000819050919050565b60007fffffffff0000000000000000000000000000000000000000000000000000000082169050919050565b600073ffffffffffffffffffffffffffffffffffffffff82169050919050565b6000819050919050565b82818337600083830152505050565b60005b838110156139a1578082015181840152602081019050613986565b838111156139b0576000848401525b50505050565b6000601f19601f8301169050919050565b6139d0816138e4565b81146139db57600080fd5b50565b6139e781613908565b81146139f257600080fd5b50565b6139fe81613914565b8114613a0957600080fd5b50565b613a158161391e565b8114613a2057600080fd5b50565b613a2c8161396a565b8114613a3757600080fd5b5056fe4552433732313a207472616e7366657220746f206e6f6e20455243373231526563656976657220696d706c656d656e7465724552433732313a206f776e657220717565727920666f72206e6f6e6578697374656e7420746f6b656ea2646970667358221220ea105f6ed9cb779dab480e3851dfa61f13401acee9d16ccf49669a41b671915964736f6c63430006020033",
  "source": "// SPDX-License-Identifier: MIT\r\npragma solidity ^0.6.2;\r\npragma experimental ABIEncoderV2;\r\n\r\nimport '@openzeppelin/contracts/token/ERC721/ERC721.sol';\r\nimport '@openzeppelin/contracts/token/ERC721/ERC721Burnable.sol';\r\nimport \"@openzeppelin/contracts/access/Ownable.sol\";\r\nimport \"@openzeppelin/contracts/utils/Counters.sol\";\r\n\r\ncontract O10ElectionCommittee is ERC721, ERC721Burnable, Ownable {\r\n    using Counters for Counters.Counter;\r\n    using EnumerableSet for EnumerableSet.UintSet;\r\n\r\n    struct CandidateDetails {\r\n        string Name;\r\n        bytes32 AssetId;\r\n    }\r\n\r\n    struct Candidate {\r\n        uint256 Index;\r\n        bool IsActive;\r\n        CandidateDetails Details;\r\n    }\r\n\r\n    struct Poll {\r\n        bool IsRegistered;\r\n        uint256 Index;\r\n        string Name;\r\n\r\n        Candidate[] Candidates;\r\n    }\r\n\r\n    Counters.Counter PollsCounter;\r\n    Counters.Counter CandidatesCounter;\r\n\r\n    mapping(string => Poll) _polls;\r\n    EnumerableSet.UintSet _pollIndicies;\r\n\r\n    constructor(string memory name, string memory symbol) ERC721(name, symbol) public {}\r\n\r\n    function registerPoll(string memory name, CandidateDetails[] memory candidates) public returns(uint256) {\r\n        Poll storage poll = _polls[name];\r\n        require(!poll.IsRegistered, \"Poll with this name already registered\");\r\n        poll.IsRegistered = true;\r\n        poll.Name = name;\r\n        for (uint256 i = 0; i < candidates.length; i++) {\r\n            for(uint256 j = 0; j < poll.Candidates.length; j++) {\r\n                require(keccak256(abi.encodePacked(poll.Candidates[j].Details.Name)) != keccak256(abi.encodePacked(candidates[i].Name)) && poll.Candidates[j].Details.AssetId != candidates[i].AssetId, \"One of candidates has duplicated details\");\r\n            }\r\n            uint256 idx = CandidatesCounter.current();\r\n            poll.Candidates.push(Candidate({Index: idx, IsActive: true, Details: candidates[i]}));\r\n            CandidatesCounter.increment();\r\n        }\r\n\r\n        poll.Index = PollsCounter.current();\r\n        PollsCounter.increment();\r\n\r\n        return poll.Index;\r\n    }\r\n}",
  "sourcePath": "C:/Dev/O10/Integrations/Rsk/Contracts/O10Idp/contracts/O10ElectionCommittee.sol",
  "compiler": {
    "name": "solc",
    "version": "0.6.2+commit.bacdbe57.Emscripten.clang"
  },
  "schemaVersion": "3.3.0",
  "updatedAt": "2020-10-23T00:57:31.251Z",
  "devdoc": {
    "methods": {
      "approve(address,uint256)": {
        "details": "See {IERC721-approve}."
      },
      "balanceOf(address)": {
        "details": "See {IERC721-balanceOf}."
      },
      "baseURI()": {
        "details": "Returns the base URI set via {_setBaseURI}. This will be automatically added as a prefix in {tokenURI} to each token's URI, or to the token ID if no specific URI is set for that token ID."
      },
      "burn(uint256)": {
        "details": "Burns `tokenId`. See {ERC721-_burn}.     * Requirements:     * - The caller must own `tokenId` or be an approved operator."
      },
      "getApproved(uint256)": {
        "details": "See {IERC721-getApproved}."
      },
      "isApprovedForAll(address,address)": {
        "details": "See {IERC721-isApprovedForAll}."
      },
      "name()": {
        "details": "See {IERC721Metadata-name}."
      },
      "owner()": {
        "details": "Returns the address of the current owner."
      },
      "ownerOf(uint256)": {
        "details": "See {IERC721-ownerOf}."
      },
      "renounceOwnership()": {
        "details": "Leaves the contract without owner. It will not be possible to call `onlyOwner` functions anymore. Can only be called by the current owner.     * NOTE: Renouncing ownership will leave the contract without an owner, thereby removing any functionality that is only available to the owner."
      },
      "safeTransferFrom(address,address,uint256)": {
        "details": "See {IERC721-safeTransferFrom}."
      },
      "safeTransferFrom(address,address,uint256,bytes)": {
        "details": "See {IERC721-safeTransferFrom}."
      },
      "setApprovalForAll(address,bool)": {
        "details": "See {IERC721-setApprovalForAll}."
      },
      "supportsInterface(bytes4)": {
        "details": "See {IERC165-supportsInterface}.     * Time complexity O(1), guaranteed to always use less than 30 000 gas."
      },
      "symbol()": {
        "details": "See {IERC721Metadata-symbol}."
      },
      "tokenByIndex(uint256)": {
        "details": "See {IERC721Enumerable-tokenByIndex}."
      },
      "tokenOfOwnerByIndex(address,uint256)": {
        "details": "See {IERC721Enumerable-tokenOfOwnerByIndex}."
      },
      "tokenURI(uint256)": {
        "details": "See {IERC721Metadata-tokenURI}."
      },
      "totalSupply()": {
        "details": "See {IERC721Enumerable-totalSupply}."
      },
      "transferFrom(address,address,uint256)": {
        "details": "See {IERC721-transferFrom}."
      },
      "transferOwnership(address)": {
        "details": "Transfers ownership of the contract to a new account (`newOwner`). Can only be called by the current owner."
      }
    }
  },
  "userdoc": {
    "methods": {}
  }
}