{
  "contractName": "O10Identity",
  "abi": [
    {
      "inputs": [
        {
          "internalType": "string",
          "name": "name",
          "type": "string"
        },
        {
          "internalType": "string",
          "name": "symbol",
          "type": "string"
        }
      ],
      "stateMutability": "nonpayable",
      "type": "constructor"
    },
    {
      "anonymous": false,
      "inputs": [
        {
          "indexed": true,
          "internalType": "address",
          "name": "owner",
          "type": "address"
        },
        {
          "indexed": true,
          "internalType": "address",
          "name": "approved",
          "type": "address"
        },
        {
          "indexed": true,
          "internalType": "uint256",
          "name": "tokenId",
          "type": "uint256"
        }
      ],
      "name": "Approval",
      "type": "event"
    },
    {
      "anonymous": false,
      "inputs": [
        {
          "indexed": true,
          "internalType": "address",
          "name": "owner",
          "type": "address"
        },
        {
          "indexed": true,
          "internalType": "address",
          "name": "operator",
          "type": "address"
        },
        {
          "indexed": false,
          "internalType": "bool",
          "name": "approved",
          "type": "bool"
        }
      ],
      "name": "ApprovalForAll",
      "type": "event"
    },
    {
      "anonymous": false,
      "inputs": [
        {
          "indexed": true,
          "internalType": "address",
          "name": "previousOwner",
          "type": "address"
        },
        {
          "indexed": true,
          "internalType": "address",
          "name": "newOwner",
          "type": "address"
        }
      ],
      "name": "OwnershipTransferred",
      "type": "event"
    },
    {
      "anonymous": false,
      "inputs": [
        {
          "indexed": true,
          "internalType": "address",
          "name": "from",
          "type": "address"
        },
        {
          "indexed": true,
          "internalType": "address",
          "name": "to",
          "type": "address"
        },
        {
          "indexed": true,
          "internalType": "uint256",
          "name": "tokenId",
          "type": "uint256"
        }
      ],
      "name": "Transfer",
      "type": "event"
    },
    {
      "inputs": [
        {
          "internalType": "address",
          "name": "to",
          "type": "address"
        },
        {
          "internalType": "uint256",
          "name": "tokenId",
          "type": "uint256"
        }
      ],
      "name": "approve",
      "outputs": [],
      "stateMutability": "nonpayable",
      "type": "function"
    },
    {
      "inputs": [
        {
          "internalType": "address",
          "name": "owner",
          "type": "address"
        }
      ],
      "name": "balanceOf",
      "outputs": [
        {
          "internalType": "uint256",
          "name": "",
          "type": "uint256"
        }
      ],
      "stateMutability": "view",
      "type": "function",
      "constant": true
    },
    {
      "inputs": [],
      "name": "baseURI",
      "outputs": [
        {
          "internalType": "string",
          "name": "",
          "type": "string"
        }
      ],
      "stateMutability": "view",
      "type": "function",
      "constant": true
    },
    {
      "inputs": [
        {
          "internalType": "uint256",
          "name": "tokenId",
          "type": "uint256"
        }
      ],
      "name": "burn",
      "outputs": [],
      "stateMutability": "nonpayable",
      "type": "function"
    },
    {
      "inputs": [
        {
          "internalType": "uint256",
          "name": "tokenId",
          "type": "uint256"
        }
      ],
      "name": "getApproved",
      "outputs": [
        {
          "internalType": "address",
          "name": "",
          "type": "address"
        }
      ],
      "stateMutability": "view",
      "type": "function",
      "constant": true
    },
    {
      "inputs": [
        {
          "internalType": "address",
          "name": "owner",
          "type": "address"
        },
        {
          "internalType": "address",
          "name": "operator",
          "type": "address"
        }
      ],
      "name": "isApprovedForAll",
      "outputs": [
        {
          "internalType": "bool",
          "name": "",
          "type": "bool"
        }
      ],
      "stateMutability": "view",
      "type": "function",
      "constant": true
    },
    {
      "inputs": [],
      "name": "name",
      "outputs": [
        {
          "internalType": "string",
          "name": "",
          "type": "string"
        }
      ],
      "stateMutability": "view",
      "type": "function",
      "constant": true
    },
    {
      "inputs": [],
      "name": "owner",
      "outputs": [
        {
          "internalType": "address",
          "name": "",
          "type": "address"
        }
      ],
      "stateMutability": "view",
      "type": "function",
      "constant": true
    },
    {
      "inputs": [
        {
          "internalType": "uint256",
          "name": "tokenId",
          "type": "uint256"
        }
      ],
      "name": "ownerOf",
      "outputs": [
        {
          "internalType": "address",
          "name": "",
          "type": "address"
        }
      ],
      "stateMutability": "view",
      "type": "function",
      "constant": true
    },
    {
      "inputs": [],
      "name": "renounceOwnership",
      "outputs": [],
      "stateMutability": "nonpayable",
      "type": "function"
    },
    {
      "inputs": [
        {
          "internalType": "address",
          "name": "from",
          "type": "address"
        },
        {
          "internalType": "address",
          "name": "to",
          "type": "address"
        },
        {
          "internalType": "uint256",
          "name": "tokenId",
          "type": "uint256"
        }
      ],
      "name": "safeTransferFrom",
      "outputs": [],
      "stateMutability": "nonpayable",
      "type": "function"
    },
    {
      "inputs": [
        {
          "internalType": "address",
          "name": "from",
          "type": "address"
        },
        {
          "internalType": "address",
          "name": "to",
          "type": "address"
        },
        {
          "internalType": "uint256",
          "name": "tokenId",
          "type": "uint256"
        },
        {
          "internalType": "bytes",
          "name": "_data",
          "type": "bytes"
        }
      ],
      "name": "safeTransferFrom",
      "outputs": [],
      "stateMutability": "nonpayable",
      "type": "function"
    },
    {
      "inputs": [
        {
          "internalType": "address",
          "name": "operator",
          "type": "address"
        },
        {
          "internalType": "bool",
          "name": "approved",
          "type": "bool"
        }
      ],
      "name": "setApprovalForAll",
      "outputs": [],
      "stateMutability": "nonpayable",
      "type": "function"
    },
    {
      "inputs": [
        {
          "internalType": "bytes4",
          "name": "interfaceId",
          "type": "bytes4"
        }
      ],
      "name": "supportsInterface",
      "outputs": [
        {
          "internalType": "bool",
          "name": "",
          "type": "bool"
        }
      ],
      "stateMutability": "view",
      "type": "function",
      "constant": true
    },
    {
      "inputs": [],
      "name": "symbol",
      "outputs": [
        {
          "internalType": "string",
          "name": "",
          "type": "string"
        }
      ],
      "stateMutability": "view",
      "type": "function",
      "constant": true
    },
    {
      "inputs": [
        {
          "internalType": "uint256",
          "name": "index",
          "type": "uint256"
        }
      ],
      "name": "tokenByIndex",
      "outputs": [
        {
          "internalType": "uint256",
          "name": "",
          "type": "uint256"
        }
      ],
      "stateMutability": "view",
      "type": "function",
      "constant": true
    },
    {
      "inputs": [
        {
          "internalType": "address",
          "name": "owner",
          "type": "address"
        },
        {
          "internalType": "uint256",
          "name": "index",
          "type": "uint256"
        }
      ],
      "name": "tokenOfOwnerByIndex",
      "outputs": [
        {
          "internalType": "uint256",
          "name": "",
          "type": "uint256"
        }
      ],
      "stateMutability": "view",
      "type": "function",
      "constant": true
    },
    {
      "inputs": [
        {
          "internalType": "uint256",
          "name": "tokenId",
          "type": "uint256"
        }
      ],
      "name": "tokenURI",
      "outputs": [
        {
          "internalType": "string",
          "name": "",
          "type": "string"
        }
      ],
      "stateMutability": "view",
      "type": "function",
      "constant": true
    },
    {
      "inputs": [],
      "name": "totalSupply",
      "outputs": [
        {
          "internalType": "uint256",
          "name": "",
          "type": "uint256"
        }
      ],
      "stateMutability": "view",
      "type": "function",
      "constant": true
    },
    {
      "inputs": [
        {
          "internalType": "address",
          "name": "from",
          "type": "address"
        },
        {
          "internalType": "address",
          "name": "to",
          "type": "address"
        },
        {
          "internalType": "uint256",
          "name": "tokenId",
          "type": "uint256"
        }
      ],
      "name": "transferFrom",
      "outputs": [],
      "stateMutability": "nonpayable",
      "type": "function"
    },
    {
      "inputs": [
        {
          "internalType": "address",
          "name": "newOwner",
          "type": "address"
        }
      ],
      "name": "transferOwnership",
      "outputs": [],
      "stateMutability": "nonpayable",
      "type": "function"
    },
    {
      "inputs": [
        {
          "internalType": "string",
          "name": "aliasName",
          "type": "string"
        }
      ],
      "name": "register",
      "outputs": [],
      "stateMutability": "nonpayable",
      "type": "function"
    },
    {
      "inputs": [],
      "name": "getAllIssuers",
      "outputs": [
        {
          "components": [
            {
              "internalType": "address",
              "name": "Address",
              "type": "address"
            },
            {
              "internalType": "string",
              "name": "Alias",
              "type": "string"
            }
          ],
          "internalType": "struct O10Identity.IssuerDetails[]",
          "name": "",
          "type": "tuple[]"
        }
      ],
      "stateMutability": "view",
      "type": "function",
      "constant": true
    },
    {
      "inputs": [
        {
          "components": [
            {
              "internalType": "string",
              "name": "AttributeName",
              "type": "string"
            },
            {
              "internalType": "string",
              "name": "AttributeScheme",
              "type": "string"
            },
            {
              "internalType": "string",
              "name": "Alias",
              "type": "string"
            },
            {
              "internalType": "bool",
              "name": "IsRoot",
              "type": "bool"
            }
          ],
          "internalType": "struct O10Identity.AttributeDefinition[]",
          "name": "definitions",
          "type": "tuple[]"
        }
      ],
      "name": "setScheme",
      "outputs": [],
      "stateMutability": "nonpayable",
      "type": "function"
    },
    {
      "inputs": [
        {
          "internalType": "address",
          "name": "issuerAddr",
          "type": "address"
        }
      ],
      "name": "getScheme",
      "outputs": [
        {
          "internalType": "uint256",
          "name": "",
          "type": "uint256"
        },
        {
          "components": [
            {
              "internalType": "string",
              "name": "AttributeName",
              "type": "string"
            },
            {
              "internalType": "string",
              "name": "AttributeScheme",
              "type": "string"
            },
            {
              "internalType": "string",
              "name": "Alias",
              "type": "string"
            },
            {
              "internalType": "bool",
              "name": "IsRoot",
              "type": "bool"
            }
          ],
          "internalType": "struct O10Identity.AttributeDefinition[]",
          "name": "",
          "type": "tuple[]"
        }
      ],
      "stateMutability": "view",
      "type": "function",
      "constant": true
    },
    {
      "inputs": [
        {
          "components": [
            {
              "internalType": "bytes32",
              "name": "BindingCommitment",
              "type": "bytes32"
            },
            {
              "internalType": "bytes32",
              "name": "AssetCommitment",
              "type": "bytes32"
            },
            {
              "internalType": "string",
              "name": "AttributeName",
              "type": "string"
            },
            {
              "internalType": "int256",
              "name": "Version",
              "type": "int256"
            },
            {
              "internalType": "uint256",
              "name": "AttributeId",
              "type": "uint256"
            }
          ],
          "internalType": "struct O10Identity.AttributeRecord[]",
          "name": "attributeRecords",
          "type": "tuple[]"
        }
      ],
      "name": "issueAttributes",
      "outputs": [],
      "stateMutability": "nonpayable",
      "type": "function"
    },
    {
      "inputs": [
        {
          "internalType": "address",
          "name": "issuerAddr",
          "type": "address"
        },
        {
          "internalType": "bytes32",
          "name": "attributeCommitment",
          "type": "bytes32"
        }
      ],
      "name": "checkRootAttributeValid",
      "outputs": [
        {
          "internalType": "bool",
          "name": "",
          "type": "bool"
        }
      ],
      "stateMutability": "view",
      "type": "function",
      "constant": true
    }
  ],
  "bytecode": "0x60806040523480156200001157600080fd5b5060405162005f6d38038062005f6d833981810160405262000037919081019062000371565b8181620000516301ffc9a760e01b6200018660201b60201c565b81600690805190602001906200006992919062000266565b5080600790805190602001906200008292919062000266565b506200009b6380ac58cd60e01b6200018660201b60201c565b620000b3635b5e139f60e01b6200018660201b60201c565b620000cb63780e9d6360e01b6200018660201b60201c565b50506000620000df6200025e60201b60201c565b905080600a60006101000a81548173ffffffffffffffffffffffffffffffffffffffff021916908373ffffffffffffffffffffffffffffffffffffffff1602179055508073ffffffffffffffffffffffffffffffffffffffff16600073ffffffffffffffffffffffffffffffffffffffff167f8be0079c531659141344cd1fd0a4f28419497f9722a3daafe3b4186f6b6457e060405160405180910390a3505050620004ea565b63ffffffff60e01b817bffffffffffffffffffffffffffffffffffffffffffffffffffffffff19161415620001f2576040517f08c379a0000000000000000000000000000000000000000000000000000000008152600401620001e99062000426565b60405180910390fd5b6001600080837bffffffffffffffffffffffffffffffffffffffffffffffffffffffff19167bffffffffffffffffffffffffffffffffffffffffffffffffffffffff1916815260200190815260200160002060006101000a81548160ff02191690831515021790555050565b600033905090565b828054600181600116156101000203166002900490600052602060002090601f016020900481019282601f10620002a957805160ff1916838001178555620002da565b82800160010185558215620002da579182015b82811115620002d9578251825591602001919060010190620002bc565b5b509050620002e99190620002ed565b5090565b6200031291905b808211156200030e576000816000905550600101620002f4565b5090565b90565b600082601f8301126200032757600080fd5b81516200033e620003388262000476565b62000448565b915080825260208301602083018583830111156200035b57600080fd5b62000368838284620004b4565b50505092915050565b600080604083850312156200038557600080fd5b600083015167ffffffffffffffff811115620003a057600080fd5b620003ae8582860162000315565b925050602083015167ffffffffffffffff811115620003cc57600080fd5b620003da8582860162000315565b9150509250929050565b6000620003f3601c83620004a3565b91507f4552433136353a20696e76616c696420696e74657266616365206964000000006000830152602082019050919050565b600060208201905081810360008301526200044181620003e4565b9050919050565b6000604051905081810181811067ffffffffffffffff821117156200046c57600080fd5b8060405250919050565b600067ffffffffffffffff8211156200048e57600080fd5b601f19601f8301169050602081019050919050565b600082825260208201905092915050565b60005b83811015620004d4578082015181840152602081019050620004b7565b83811115620004e4576000848401525b50505050565b615a7380620004fa6000396000f3fe608060405234801561001057600080fd5b50600436106101a95760003560e01c80636352211e116100f9578063a22cb46511610097578063e985e9c511610071578063e985e9c5146104e1578063e9c88cf714610511578063f2c298be1461052d578063f2fde38b14610549576101a9565b8063a22cb46514610479578063b88d4fde14610495578063c87b56dd146104b1576101a9565b8063715018a6116100d3578063715018a6146104035780638da5cb5b1461040d578063921b121f1461042b57806395d89b411461045b576101a9565b80636352211e146103855780636c0360eb146103b557806370a08231146103d3576101a9565b80632f745c591161016657806342842e0e1161014057806342842e0e146102ff57806342966c681461031b5780634c32c35c146103375780634f6ccce714610355576101a9565b80632f745c591461028257806335009059146102b25780633730ab40146102ce576101a9565b806301ffc9a7146101ae57806306fdde03146101de578063081812fc146101fc578063095ea7b31461022c57806318160ddd1461024857806323b872dd14610266575b600080fd5b6101c860048036036101c391908101906143de565b610565565b6040516101d591906152b1565b60405180910390f35b6101e66105cc565b6040516101f391906152cc565b60405180910390f35b61021660048036036102119190810190614471565b61066e565b6040516102239190615228565b60405180910390f35b61024660048036036102419190810190614320565b6106f3565b005b61025061080b565b60405161025d919061562e565b60405180910390f35b610280600480360361027b91908101906141de565b61081c565b005b61029c60048036036102979190810190614320565b61087c565b6040516102a9919061562e565b60405180910390f35b6102cc60048036036102c7919081019061439d565b6108d7565b005b6102e860048036036102e39190810190614179565b611120565b6040516102f6929190615649565b60405180910390f35b610319600480360361031491908101906141de565b6115db565b005b61033560048036036103309190810190614471565b6115fb565b005b61033f611657565b60405161034c919061528f565b60405180910390f35b61036f600480360361036a9190810190614471565b611841565b60405161037c919061562e565b60405180910390f35b61039f600480360361039a9190810190614471565b611864565b6040516103ac9190615228565b60405180910390f35b6103bd61189b565b6040516103ca91906152cc565b60405180910390f35b6103ed60048036036103e89190810190614179565b61193d565b6040516103fa919061562e565b60405180910390f35b61040b6119fc565b005b610415611b54565b6040516104229190615228565b60405180910390f35b610445600480360361044091908101906142e4565b611b7e565b60405161045291906152b1565b60405180910390f35b610463611d9b565b60405161047091906152cc565b60405180910390f35b610493600480360361048e91908101906142a8565b611e3d565b005b6104af60048036036104aa919081019061422d565b611fbe565b005b6104cb60048036036104c69190810190614471565b612020565b6040516104d891906152cc565b60405180910390f35b6104fb60048036036104f691908101906141a2565b6121ab565b60405161050891906152b1565b60405180910390f35b61052b6004803603610526919081019061435c565b61223f565b005b61054760048036036105429190810190614430565b612559565b005b610563600480360361055e9190810190614179565b6126fe565b005b6000806000837bffffffffffffffffffffffffffffffffffffffffffffffffffffffff19167bffffffffffffffffffffffffffffffffffffffffffffffffffffffff1916815260200190815260200160002060009054906101000a900460ff169050919050565b606060068054600181600116156101000203166002900480601f0160208091040260200160405190810160405280929190818152602001828054600181600116156101000203166002900480156106645780601f1061063957610100808354040283529160200191610664565b820191906000526020600020905b81548152906001019060200180831161064757829003601f168201915b5050505050905090565b6000610679826128c5565b6106b8576040517f08c379a00000000000000000000000000000000000000000000000000000000081526004016106af906154ae565b60405180910390fd5b6004600083815260200190815260200160002060009054906101000a900473ffffffffffffffffffffffffffffffffffffffff169050919050565b60006106fe82611864565b90508073ffffffffffffffffffffffffffffffffffffffff168373ffffffffffffffffffffffffffffffffffffffff16141561076f576040517f08c379a00000000000000000000000000000000000000000000000000000000081526004016107669061554e565b60405180910390fd5b8073ffffffffffffffffffffffffffffffffffffffff1661078e6128e2565b73ffffffffffffffffffffffffffffffffffffffff1614806107bd57506107bc816107b76128e2565b6121ab565b5b6107fc576040517f08c379a00000000000000000000000000000000000000000000000000000000081526004016107f39061542e565b60405180910390fd5b61080683836128ea565b505050565b600061081760026129a3565b905090565b61082d6108276128e2565b826129b8565b61086c576040517f08c379a00000000000000000000000000000000000000000000000000000000081526004016108639061556e565b60405180910390fd5b610877838383612a96565b505050565b60006108cf82600160008673ffffffffffffffffffffffffffffffffffffffff1673ffffffffffffffffffffffffffffffffffffffff168152602001908152602001600020612cad90919063ffffffff16565b905092915050565b6000339050600c60008273ffffffffffffffffffffffffffffffffffffffff1673ffffffffffffffffffffffffffffffffffffffff16815260200190815260200160002060020160009054906101000a900460ff1661096b576040517f08c379a00000000000000000000000000000000000000000000000000000000081526004016109629061532e565b60405180910390fd5b60006109b7600c60008473ffffffffffffffffffffffffffffffffffffffff1673ffffffffffffffffffffffffffffffffffffffff168152602001908152602001600020600301612cc7565b116109f7576040517f08c379a00000000000000000000000000000000000000000000000000000000081526004016109ee906155ce565b60405180910390fd5b6000610a43600c60008473ffffffffffffffffffffffffffffffffffffffff1673ffffffffffffffffffffffffffffffffffffffff168152602001908152602001600020600301612cc7565b905060008090505b8351811015610c4f57600080905060008090505b600c60008673ffffffffffffffffffffffffffffffffffffffff1673ffffffffffffffffffffffffffffffffffffffff168152602001908152602001600020600501600085815260200190815260200160002080549050811015610c0057610be5868481518110610acc57fe5b602002602001015160400151600c60008873ffffffffffffffffffffffffffffffffffffffff1673ffffffffffffffffffffffffffffffffffffffff16815260200190815260200160002060050160008781526020019081526020016000208381548110610b3657fe5b90600052602060002090600402016000018054600181600116156101000203166002900480601f016020809104026020016040519081016040528092919081815260200182805460018160011615610100020316600290048015610bdb5780601f10610bb057610100808354040283529160200191610bdb565b820191906000526020600020905b815481529060010190602001808311610bbe57829003601f168201915b5050505050612cd5565b15610bf35760019150610c00565b8080600101915050610a5f565b5080610c41576040517f08c379a0000000000000000000000000000000000000000000000000000000008152600401610c389061552e565b60405180910390fd5b508080600101915050610a4b565b5060008090505b835181101561111a57610ca9600c60008573ffffffffffffffffffffffffffffffffffffffff1673ffffffffffffffffffffffffffffffffffffffff168152602001908152602001600020600401612ceb565b6000600c60008573ffffffffffffffffffffffffffffffffffffffff1673ffffffffffffffffffffffffffffffffffffffff1681526020019081526020016000206009016000868481518110610cfb57fe5b6020026020010151600001518152602001908152602001600020600401541115610d9657610d95600c60008573ffffffffffffffffffffffffffffffffffffffff1673ffffffffffffffffffffffffffffffffffffffff1681526020019081526020016000206009016000868481518110610d7257fe5b6020026020010151600001518152602001908152602001600020600401546115fb565b5b6000610de2600c60008673ffffffffffffffffffffffffffffffffffffffff1673ffffffffffffffffffffffffffffffffffffffff168152602001908152602001600020600401612cc7565b905080858381518110610df157fe5b60200260200101516080018181525050600c60008573ffffffffffffffffffffffffffffffffffffffff1673ffffffffffffffffffffffffffffffffffffffff168152602001908152602001600020600601858381518110610e4f57fe5b6020026020010151908060018154018082558091505060019003906000526020600020906005020160009091909190915060008201518160000155602082015181600101556040820151816002019080519060200190610eb0929190613c5f565b5060608201518160030155608082015181600401555050848281518110610ed357fe5b6020026020010151600c60008673ffffffffffffffffffffffffffffffffffffffff1673ffffffffffffffffffffffffffffffffffffffff168152602001908152602001600020600701600083815260200190815260200160002060008201518160000155602082015181600101556040820151816002019080519060200190610f5e929190613c5f565b506060820151816003015560808201518160040155905050848281518110610f8257fe5b6020026020010151600c60008673ffffffffffffffffffffffffffffffffffffffff1673ffffffffffffffffffffffffffffffffffffffff1681526020019081526020016000206008016000878581518110610fda57fe5b602002602001015160200151815260200190815260200160002060008201518160000155602082015181600101556040820151816002019080519060200190611024929190613c5f565b50606082015181600301556080820151816004015590505084828151811061104857fe5b6020026020010151600c60008673ffffffffffffffffffffffffffffffffffffffff1673ffffffffffffffffffffffffffffffffffffffff16815260200190815260200160002060090160008785815181106110a057fe5b6020026020010151600001518152602001908152602001600020600082015181600001556020820151816001015560408201518160020190805190602001906110ea929190613c5f565b50606082015181600301556080820151816004015590505061110c8482612d01565b508080600101915050610c56565b50505050565b60006060600c60008473ffffffffffffffffffffffffffffffffffffffff1673ffffffffffffffffffffffffffffffffffffffff16815260200190815260200160002060020160009054906101000a900460ff166111b3576040517f08c379a00000000000000000000000000000000000000000000000000000000081526004016111aa9061532e565b60405180910390fd5b60006111ff600c60008673ffffffffffffffffffffffffffffffffffffffff1673ffffffffffffffffffffffffffffffffffffffff168152602001908152602001600020600301612cc7565b1161123f576040517f08c379a0000000000000000000000000000000000000000000000000000000008152600401611236906155ce565b60405180910390fd5b600061128b600c60008673ffffffffffffffffffffffffffffffffffffffff1673ffffffffffffffffffffffffffffffffffffffff168152602001908152602001600020600301612cc7565b90506060600c60008673ffffffffffffffffffffffffffffffffffffffff1673ffffffffffffffffffffffffffffffffffffffff16815260200190815260200160002060050160008381526020019081526020016000208054905060405190808252806020026020018201604052801561131f57816020015b61130c613cdf565b8152602001906001900390816113045790505b50905060008090505b81518110156115cd57600c60008773ffffffffffffffffffffffffffffffffffffffff1673ffffffffffffffffffffffffffffffffffffffff1681526020019081526020016000206005016000848152602001908152602001600020818154811061138f57fe5b9060005260206000209060040201604051806080016040529081600082018054600181600116156101000203166002900480601f0160208091040260200160405190810160405280929190818152602001828054600181600116156101000203166002900480156114415780601f1061141657610100808354040283529160200191611441565b820191906000526020600020905b81548152906001019060200180831161142457829003601f168201915b50505050508152602001600182018054600181600116156101000203166002900480601f0160208091040260200160405190810160405280929190818152602001828054600181600116156101000203166002900480156114e35780601f106114b8576101008083540402835291602001916114e3565b820191906000526020600020905b8154815290600101906020018083116114c657829003601f168201915b50505050508152602001600282018054600181600116156101000203166002900480601f0160208091040260200160405190810160405280929190818152602001828054600181600116156101000203166002900480156115855780601f1061155a57610100808354040283529160200191611585565b820191906000526020600020905b81548152906001019060200180831161156857829003601f168201915b505050505081526020016003820160009054906101000a900460ff1615151515815250508282815181106115b557fe5b60200260200101819052508080600101915050611328565b508181935093505050915091565b6115f683838360405180602001604052806000815250611fbe565b505050565b61160c6116066128e2565b826129b8565b61164b576040517f08c379a0000000000000000000000000000000000000000000000000000000008152600401611642906155ee565b60405180910390fd5b61165481612e8f565b50565b606080611664600d612fc9565b60405190808252806020026020018201604052801561169d57816020015b61168a613d09565b8152602001906001900390816116825790505b50905060008090505b6116b0600d612fc9565b8110156118395760006116cd82600d612fde90919063ffffffff16565b9050600c60008273ffffffffffffffffffffffffffffffffffffffff1673ffffffffffffffffffffffffffffffffffffffff1681526020019081526020016000206000016040518060400160405290816000820160009054906101000a900473ffffffffffffffffffffffffffffffffffffffff1673ffffffffffffffffffffffffffffffffffffffff1673ffffffffffffffffffffffffffffffffffffffff168152602001600182018054600181600116156101000203166002900480601f01602080910402602001604051908101604052809291908181526020018280546001816001161561010002031660029004801561180b5780601f106117e05761010080835404028352916020019161180b565b820191906000526020600020905b8154815290600101906020018083116117ee57829003601f168201915b50505050508152505083838151811061182057fe5b60200260200101819052505080806001019150506116a6565b508091505090565b600080611858836002612ff890919063ffffffff16565b50905080915050919050565b600061189482604051806060016040528060298152602001615a156029913960026130279092919063ffffffff16565b9050919050565b606060098054600181600116156101000203166002900480601f0160208091040260200160405190810160405280929190818152602001828054600181600116156101000203166002900480156119335780601f1061190857610100808354040283529160200191611933565b820191906000526020600020905b81548152906001019060200180831161191657829003601f168201915b5050505050905090565b60008073ffffffffffffffffffffffffffffffffffffffff168273ffffffffffffffffffffffffffffffffffffffff1614156119ae576040517f08c379a00000000000000000000000000000000000000000000000000000000081526004016119a59061544e565b60405180910390fd5b6119f5600160008473ffffffffffffffffffffffffffffffffffffffff1673ffffffffffffffffffffffffffffffffffffffff168152602001908152602001600020613046565b9050919050565b611a046128e2565b73ffffffffffffffffffffffffffffffffffffffff16600a60009054906101000a900473ffffffffffffffffffffffffffffffffffffffff1673ffffffffffffffffffffffffffffffffffffffff1614611a93576040517f08c379a0000000000000000000000000000000000000000000000000000000008152600401611a8a906154ce565b60405180910390fd5b600073ffffffffffffffffffffffffffffffffffffffff16600a60009054906101000a900473ffffffffffffffffffffffffffffffffffffffff1673ffffffffffffffffffffffffffffffffffffffff167f8be0079c531659141344cd1fd0a4f28419497f9722a3daafe3b4186f6b6457e060405160405180910390a36000600a60006101000a81548173ffffffffffffffffffffffffffffffffffffffff021916908373ffffffffffffffffffffffffffffffffffffffff160217905550565b6000600a60009054906101000a900473ffffffffffffffffffffffffffffffffffffffff16905090565b6000600c60008473ffffffffffffffffffffffffffffffffffffffff1673ffffffffffffffffffffffffffffffffffffffff16815260200190815260200160002060020160009054906101000a900460ff16611c0f576040517f08c379a0000000000000000000000000000000000000000000000000000000008152600401611c069061532e565b60405180910390fd5b6000611c5b600c60008673ffffffffffffffffffffffffffffffffffffffff1673ffffffffffffffffffffffffffffffffffffffff168152602001908152602001600020600301612cc7565b11611c9b576040517f08c379a0000000000000000000000000000000000000000000000000000000008152600401611c92906155ce565b60405180910390fd5b6000600c60008573ffffffffffffffffffffffffffffffffffffffff1673ffffffffffffffffffffffffffffffffffffffff16815260200190815260200160002060080160008481526020019081526020016000206004015411611d34576040517f08c379a0000000000000000000000000000000000000000000000000000000008152600401611d2b906155ae565b60405180910390fd5b611d93600c60008573ffffffffffffffffffffffffffffffffffffffff1673ffffffffffffffffffffffffffffffffffffffff1681526020019081526020016000206008016000848152602001908152602001600020600401546128c5565b905092915050565b606060078054600181600116156101000203166002900480601f016020809104026020016040519081016040528092919081815260200182805460018160011615610100020316600290048015611e335780601f10611e0857610100808354040283529160200191611e33565b820191906000526020600020905b815481529060010190602001808311611e1657829003601f168201915b5050505050905090565b611e456128e2565b73ffffffffffffffffffffffffffffffffffffffff168273ffffffffffffffffffffffffffffffffffffffff161415611eb3576040517f08c379a0000000000000000000000000000000000000000000000000000000008152600401611eaa906153ce565b60405180910390fd5b8060056000611ec06128e2565b73ffffffffffffffffffffffffffffffffffffffff1673ffffffffffffffffffffffffffffffffffffffff16815260200190815260200160002060008473ffffffffffffffffffffffffffffffffffffffff1673ffffffffffffffffffffffffffffffffffffffff16815260200190815260200160002060006101000a81548160ff0219169083151502179055508173ffffffffffffffffffffffffffffffffffffffff16611f6d6128e2565b73ffffffffffffffffffffffffffffffffffffffff167f17307eab39ab6107e8899845ad3d59bd9653f200f220920489ca2b5937696c3183604051611fb291906152b1565b60405180910390a35050565b611fcf611fc96128e2565b836129b8565b61200e576040517f08c379a00000000000000000000000000000000000000000000000000000000081526004016120059061556e565b60405180910390fd5b61201a8484848461305b565b50505050565b606061202b826128c5565b61206a576040517f08c379a00000000000000000000000000000000000000000000000000000000081526004016120619061550e565b60405180910390fd5b6060600860008481526020019081526020016000208054600181600116156101000203166002900480601f0160208091040260200160405190810160405280929190818152602001828054600181600116156101000203166002900480156121135780601f106120e857610100808354040283529160200191612113565b820191906000526020600020905b8154815290600101906020018083116120f657829003601f168201915b5050505050905060006009805460018160011615610100020316600290049050141561214257809150506121a6565b60008151111561217757600981604051602001612160929190615204565b6040516020818303038152906040529150506121a6565b6009612182846130b7565b604051602001612193929190615204565b6040516020818303038152906040529150505b919050565b6000600560008473ffffffffffffffffffffffffffffffffffffffff1673ffffffffffffffffffffffffffffffffffffffff16815260200190815260200160002060008373ffffffffffffffffffffffffffffffffffffffff1673ffffffffffffffffffffffffffffffffffffffff16815260200190815260200160002060009054906101000a900460ff16905092915050565b6000339050600c60008273ffffffffffffffffffffffffffffffffffffffff1673ffffffffffffffffffffffffffffffffffffffff16815260200190815260200160002060020160009054906101000a900460ff166122d3576040517f08c379a00000000000000000000000000000000000000000000000000000000081526004016122ca9061532e565b60405180910390fd5b6000825111612317576040517f08c379a000000000000000000000000000000000000000000000000000000000815260040161230e9061560e565b60405180910390fd5b600080905060008090505b835181101561235a5783818151811061233757fe5b6020026020010151606001511561234d57600191505b8080600101915050612322565b508061239b576040517f08c379a00000000000000000000000000000000000000000000000000000000081526004016123929061538e565b60405180910390fd5b6123e5600c60008473ffffffffffffffffffffffffffffffffffffffff1673ffffffffffffffffffffffffffffffffffffffff168152602001908152602001600020600301612ceb565b60008090505b835181101561255357600c60008473ffffffffffffffffffffffffffffffffffffffff1673ffffffffffffffffffffffffffffffffffffffff1681526020019081526020016000206005016000612482600c60008773ffffffffffffffffffffffffffffffffffffffff1673ffffffffffffffffffffffffffffffffffffffff168152602001908152602001600020600301612cc7565b815260200190815260200160002084828151811061249c57fe5b6020026020010151908060018154018082558091505060019003906000526020600020906004020160009091909190915060008201518160000190805190602001906124e9929190613c5f565b506020820151816001019080519060200190612506929190613c5f565b506040820151816002019080519060200190612523929190613c5f565b5060608201518160030160006101000a81548160ff021916908315150217905550505080806001019150506123eb565b50505050565b6000339050600c60008273ffffffffffffffffffffffffffffffffffffffff1673ffffffffffffffffffffffffffffffffffffffff16815260200190815260200160002060020160009054906101000a900460ff16156125ee576040517f08c379a00000000000000000000000000000000000000000000000000000000081526004016125e59061540e565b60405180910390fd5b6000600c60008373ffffffffffffffffffffffffffffffffffffffff1673ffffffffffffffffffffffffffffffffffffffff168152602001908152602001600020905060018160020160006101000a81548160ff02191690831515021790555060405180604001604052808373ffffffffffffffffffffffffffffffffffffffff168152602001848152508160000160008201518160000160006101000a81548173ffffffffffffffffffffffffffffffffffffffff021916908373ffffffffffffffffffffffffffffffffffffffff16021790555060208201518160010190805190602001906126e0929190613c5f565b509050506126f882600d6131e790919063ffffffff16565b50505050565b6127066128e2565b73ffffffffffffffffffffffffffffffffffffffff16600a60009054906101000a900473ffffffffffffffffffffffffffffffffffffffff1673ffffffffffffffffffffffffffffffffffffffff1614612795576040517f08c379a000000000000000000000000000000000000000000000000000000000815260040161278c906154ce565b60405180910390fd5b600073ffffffffffffffffffffffffffffffffffffffff168173ffffffffffffffffffffffffffffffffffffffff161415612805576040517f08c379a00000000000000000000000000000000000000000000000000000000081526004016127fc9061534e565b60405180910390fd5b8073ffffffffffffffffffffffffffffffffffffffff16600a60009054906101000a900473ffffffffffffffffffffffffffffffffffffffff1673ffffffffffffffffffffffffffffffffffffffff167f8be0079c531659141344cd1fd0a4f28419497f9722a3daafe3b4186f6b6457e060405160405180910390a380600a60006101000a81548173ffffffffffffffffffffffffffffffffffffffff021916908373ffffffffffffffffffffffffffffffffffffffff16021790555050565b60006128db82600261321790919063ffffffff16565b9050919050565b600033905090565b816004600083815260200190815260200160002060006101000a81548173ffffffffffffffffffffffffffffffffffffffff021916908373ffffffffffffffffffffffffffffffffffffffff160217905550808273ffffffffffffffffffffffffffffffffffffffff1661295d83611864565b73ffffffffffffffffffffffffffffffffffffffff167f8c5be1e5ebec7d5bd14f71427d1e84f3dd0314c0f7b2291e5b200ac8c7c3b92560405160405180910390a45050565b60006129b182600001613231565b9050919050565b60006129c3826128c5565b612a02576040517f08c379a00000000000000000000000000000000000000000000000000000000081526004016129f9906153ee565b60405180910390fd5b6000612a0d83611864565b90508073ffffffffffffffffffffffffffffffffffffffff168473ffffffffffffffffffffffffffffffffffffffff161480612a7c57508373ffffffffffffffffffffffffffffffffffffffff16612a648461066e565b73ffffffffffffffffffffffffffffffffffffffff16145b80612a8d5750612a8c81856121ab565b5b91505092915050565b8273ffffffffffffffffffffffffffffffffffffffff16612ab682611864565b73ffffffffffffffffffffffffffffffffffffffff1614612b0c576040517f08c379a0000000000000000000000000000000000000000000000000000000008152600401612b03906154ee565b60405180910390fd5b600073ffffffffffffffffffffffffffffffffffffffff168273ffffffffffffffffffffffffffffffffffffffff161415612b7c576040517f08c379a0000000000000000000000000000000000000000000000000000000008152600401612b73906153ae565b60405180910390fd5b612b87838383613242565b612b926000826128ea565b612be381600160008673ffffffffffffffffffffffffffffffffffffffff1673ffffffffffffffffffffffffffffffffffffffff16815260200190815260200160002061324790919063ffffffff16565b50612c3581600160008573ffffffffffffffffffffffffffffffffffffffff1673ffffffffffffffffffffffffffffffffffffffff16815260200190815260200160002061326190919063ffffffff16565b50612c4c8183600261327b9092919063ffffffff16565b50808273ffffffffffffffffffffffffffffffffffffffff168473ffffffffffffffffffffffffffffffffffffffff167fddf252ad1be2c89b69c2b068fc378daa952ba7f163c4a11628f55a4df523b3ef60405160405180910390a4505050565b6000612cbc83600001836132b0565b60001c905092915050565b600081600001549050919050565b600080612ce2848461331d565b14905092915050565b6001816000016000828254019250508190555050565b600073ffffffffffffffffffffffffffffffffffffffff168273ffffffffffffffffffffffffffffffffffffffff161415612d71576040517f08c379a0000000000000000000000000000000000000000000000000000000008152600401612d689061548e565b60405180910390fd5b612d7a816128c5565b15612dba576040517f08c379a0000000000000000000000000000000000000000000000000000000008152600401612db19061536e565b60405180910390fd5b612dc660008383613242565b612e1781600160008573ffffffffffffffffffffffffffffffffffffffff1673ffffffffffffffffffffffffffffffffffffffff16815260200190815260200160002061326190919063ffffffff16565b50612e2e8183600261327b9092919063ffffffff16565b50808273ffffffffffffffffffffffffffffffffffffffff16600073ffffffffffffffffffffffffffffffffffffffff167fddf252ad1be2c89b69c2b068fc378daa952ba7f163c4a11628f55a4df523b3ef60405160405180910390a45050565b6000612e9a82611864565b9050612ea881600084613242565b612eb36000836128ea565b60006008600084815260200190815260200160002080546001816001161561010002031660029004905014612f0257600860008381526020019081526020016000206000612f019190613d39565b5b612f5382600160008473ffffffffffffffffffffffffffffffffffffffff1673ffffffffffffffffffffffffffffffffffffffff16815260200190815260200160002061324790919063ffffffff16565b50612f688260026134db90919063ffffffff16565b5081600073ffffffffffffffffffffffffffffffffffffffff168273ffffffffffffffffffffffffffffffffffffffff167fddf252ad1be2c89b69c2b068fc378daa952ba7f163c4a11628f55a4df523b3ef60405160405180910390a45050565b6000612fd7826000016134f5565b9050919050565b6000612fed83600001836132b0565b60001c905092915050565b60008060008061300b8660000186613506565b915091508160001c8160001c8090509350935050509250929050565b600061303a846000018460001b84613589565b60001c90509392505050565b6000613054826000016134f5565b9050919050565b613066848484612a96565b6130728484848461361a565b6130b1576040517f08c379a00000000000000000000000000000000000000000000000000000000081526004016130a89061530e565b60405180910390fd5b50505050565b606060008214156130ff576040518060400160405280600181526020017f300000000000000000000000000000000000000000000000000000000000000081525090506131e2565b600082905060005b60008214613129578080600101915050600a828161312157fe5b049150613107565b6060816040519080825280601f01601f19166020018201604052801561315e5781602001600182028038833980820191505090505b50905060006001830390508593505b600084146131da57600a848161317f57fe5b0660300160f81b8282806001900393508151811061319957fe5b60200101907effffffffffffffffffffffffffffffffffffffffffffffffffffffffffffff1916908160001a905350600a84816131d257fe5b04935061316d565b819450505050505b919050565b600061320f836000018373ffffffffffffffffffffffffffffffffffffffff1660001b61377e565b905092915050565b6000613229836000018360001b6137ee565b905092915050565b600081600001805490509050919050565b505050565b6000613259836000018360001b613811565b905092915050565b6000613273836000018360001b61377e565b905092915050565b60006132a7846000018460001b8473ffffffffffffffffffffffffffffffffffffffff1660001b6138f9565b90509392505050565b6000818360000180549050116132fb576040517f08c379a00000000000000000000000000000000000000000000000000000000081526004016132f2906152ee565b60405180910390fd5b82600001828154811061330a57fe5b9060005260206000200154905092915050565b600060608390506060839050600082519050808251101561333d57815190505b60008090505b818110156134815782818151811061335757fe5b602001015160f81c60f81b7effffffffffffffffffffffffffffffffffffffffffffffffffffffffffffff191684828151811061339057fe5b602001015160f81c60f81b7effffffffffffffffffffffffffffffffffffffffffffffffffffffffffffff191610156133ef577fffffffffffffffffffffffffffffffffffffffffffffffffffffffffffffffff9450505050506134d5565b8281815181106133fb57fe5b602001015160f81c60f81b7effffffffffffffffffffffffffffffffffffffffffffffffffffffffffffff191684828151811061343457fe5b602001015160f81c60f81b7effffffffffffffffffffffffffffffffffffffffffffffffffffffffffffff191611156134745760019450505050506134d5565b8080600101915050613343565b508151835110156134b7577fffffffffffffffffffffffffffffffffffffffffffffffffffffffffffffffff93505050506134d5565b8151835111156134cd57600193505050506134d5565b600093505050505b92915050565b60006134ed836000018360001b6139d5565b905092915050565b600081600001805490509050919050565b60008082846000018054905011613552576040517f08c379a00000000000000000000000000000000000000000000000000000000081526004016135499061546e565b60405180910390fd5b600084600001848154811061356357fe5b906000526020600020906002020190508060000154816001015492509250509250929050565b600080846001016000858152602001908152602001600020549050600081141583906135eb576040517f08c379a00000000000000000000000000000000000000000000000000000000081526004016135e291906152cc565b60405180910390fd5b508460000160018203815481106135fe57fe5b9060005260206000209060020201600101549150509392505050565b600061363b8473ffffffffffffffffffffffffffffffffffffffff16613aee565b6136485760019050613776565b606061370f63150b7a0260e01b61365d6128e2565b8887876040516024016136739493929190615243565b604051602081830303815290604052907bffffffffffffffffffffffffffffffffffffffffffffffffffffffff19166020820180517bffffffffffffffffffffffffffffffffffffffffffffffffffffffff83818316178352505050506040518060600160405280603281526020016159e3603291398773ffffffffffffffffffffffffffffffffffffffff16613b019092919063ffffffff16565b90506000818060200190516137279190810190614407565b905063150b7a0260e01b7bffffffffffffffffffffffffffffffffffffffffffffffffffffffff1916817bffffffffffffffffffffffffffffffffffffffffffffffffffffffff191614925050505b949350505050565b600061378a8383613b19565b6137e35782600001829080600181540180825580915050600190039060005260206000200160009091909190915055826000018054905083600101600084815260200190815260200160002081905550600190506137e8565b600090505b92915050565b600080836001016000848152602001908152602001600020541415905092915050565b600080836001016000848152602001908152602001600020549050600081146138ed576000600182039050600060018660000180549050039050600086600001828154811061385c57fe5b906000526020600020015490508087600001848154811061387957fe5b90600052602060002001819055506001830187600101600083815260200190815260200160002081905550866000018054806138b157fe5b600190038181906000526020600020016000905590558660010160008781526020019081526020016000206000905560019450505050506138f3565b60009150505b92915050565b60008084600101600085815260200190815260200160002054905060008114156139a0578460000160405180604001604052808681526020018581525090806001815401808255809150506001900390600052602060002090600202016000909190919091506000820151816000015560208201518160010155505084600001805490508560010160008681526020019081526020016000208190555060019150506139ce565b828560000160018303815481106139b357fe5b90600052602060002090600202016001018190555060009150505b9392505050565b60008083600101600084815260200190815260200160002054905060008114613ae25760006001820390506000600186600001805490500390506000866000018281548110613a2057fe5b9060005260206000209060020201905080876000018481548110613a4057fe5b9060005260206000209060020201600082015481600001556001820154816001015590505060018301876001016000836000015481526020019081526020016000208190555086600001805480613a9357fe5b6001900381819060005260206000209060020201600080820160009055600182016000905550509055866001016000878152602001908152602001600020600090556001945050505050613ae8565b60009150505b92915050565b600080823b905060008111915050919050565b6060613b108484600085613b3c565b90509392505050565b600080836001016000848152602001908152602001600020541415905092915050565b6060613b4785613aee565b613b86576040517f08c379a0000000000000000000000000000000000000000000000000000000008152600401613b7d9061558e565b60405180910390fd5b600060608673ffffffffffffffffffffffffffffffffffffffff168587604051613bb091906151ed565b60006040518083038185875af1925050503d8060008114613bed576040519150601f19603f3d011682016040523d82523d6000602084013e613bf2565b606091505b50915091508115613c07578092505050613c57565b600081511115613c1a5780518082602001fd5b836040517f08c379a0000000000000000000000000000000000000000000000000000000008152600401613c4e91906152cc565b60405180910390fd5b949350505050565b828054600181600116156101000203166002900490600052602060002090601f016020900481019282601f10613ca057805160ff1916838001178555613cce565b82800160010185558215613cce579182015b82811115613ccd578251825591602001919060010190613cb2565b5b509050613cdb9190613d81565b5090565b60405180608001604052806060815260200160608152602001606081526020016000151581525090565b6040518060400160405280600073ffffffffffffffffffffffffffffffffffffffff168152602001606081525090565b50805460018160011615610100020316600290046000825580601f10613d5f5750613d7e565b601f016020900490600052602060002090810190613d7d9190613d81565b5b50565b613da391905b80821115613d9f576000816000905550600101613d87565b5090565b90565b600081359050613db581615958565b92915050565b600082601f830112613dcc57600080fd5b8135613ddf613dda826156a6565b615679565b9150818183526020840193506020810190508360005b83811015613e255781358601613e0b8882614008565b845260208401935060208301925050600181019050613df5565b5050505092915050565b600082601f830112613e4057600080fd5b8135613e53613e4e826156ce565b615679565b9150818183526020840193506020810190508360005b83811015613e995781358601613e7f88826140c4565b845260208401935060208301925050600181019050613e69565b5050505092915050565b600081359050613eb28161596f565b92915050565b600081359050613ec781615986565b92915050565b600081359050613edc8161599d565b92915050565b600081519050613ef18161599d565b92915050565b600082601f830112613f0857600080fd5b8135613f1b613f16826156f6565b615679565b91508082526020830160208301858383011115613f3757600080fd5b613f42838284615905565b50505092915050565b600081359050613f5a816159b4565b92915050565b600082601f830112613f7157600080fd5b8135613f84613f7f82615722565b615679565b91508082526020830160208301858383011115613fa057600080fd5b613fab838284615905565b50505092915050565b600082601f830112613fc557600080fd5b8135613fd8613fd38261574e565b615679565b91508082526020830160208301858383011115613ff457600080fd5b613fff838284615905565b50505092915050565b60006080828403121561401a57600080fd5b6140246080615679565b9050600082013567ffffffffffffffff81111561404057600080fd5b61404c84828501613f60565b600083015250602082013567ffffffffffffffff81111561406c57600080fd5b61407884828501613f60565b602083015250604082013567ffffffffffffffff81111561409857600080fd5b6140a484828501613f60565b60408301525060606140b884828501613ea3565b60608301525092915050565b600060a082840312156140d657600080fd5b6140e060a0615679565b905060006140f084828501613eb8565b600083015250602061410484828501613eb8565b602083015250604082013567ffffffffffffffff81111561412457600080fd5b61413084828501613f60565b604083015250606061414484828501613f4b565b606083015250608061415884828501614164565b60808301525092915050565b600081359050614173816159cb565b92915050565b60006020828403121561418b57600080fd5b600061419984828501613da6565b91505092915050565b600080604083850312156141b557600080fd5b60006141c385828601613da6565b92505060206141d485828601613da6565b9150509250929050565b6000806000606084860312156141f357600080fd5b600061420186828701613da6565b935050602061421286828701613da6565b925050604061422386828701614164565b9150509250925092565b6000806000806080858703121561424357600080fd5b600061425187828801613da6565b945050602061426287828801613da6565b935050604061427387828801614164565b925050606085013567ffffffffffffffff81111561429057600080fd5b61429c87828801613ef7565b91505092959194509250565b600080604083850312156142bb57600080fd5b60006142c985828601613da6565b92505060206142da85828601613ea3565b9150509250929050565b600080604083850312156142f757600080fd5b600061430585828601613da6565b925050602061431685828601613eb8565b9150509250929050565b6000806040838503121561433357600080fd5b600061434185828601613da6565b925050602061435285828601614164565b9150509250929050565b60006020828403121561436e57600080fd5b600082013567ffffffffffffffff81111561438857600080fd5b61439484828501613dbb565b91505092915050565b6000602082840312156143af57600080fd5b600082013567ffffffffffffffff8111156143c957600080fd5b6143d584828501613e2f565b91505092915050565b6000602082840312156143f057600080fd5b60006143fe84828501613ecd565b91505092915050565b60006020828403121561441957600080fd5b600061442784828501613ee2565b91505092915050565b60006020828403121561444257600080fd5b600082013567ffffffffffffffff81111561445c57600080fd5b61446884828501613fb4565b91505092915050565b60006020828403121561448357600080fd5b600061449184828501614164565b91505092915050565b60006144a68383615130565b905092915050565b60006144ba83836151a1565b905092915050565b6144cb8161587d565b82525050565b6144da8161586b565b82525050565b6144e98161586b565b82525050565b60006144fa826157af565b6145048185615800565b9350836020820285016145168561577a565b8060005b858110156145525784840389528151614533858261449a565b945061453e836157e6565b925060208a0199505060018101905061451a565b50829750879550505050505092915050565b600061456f826157ba565b6145798185615811565b93508360208202850161458b8561578a565b8060005b858110156145c757848403895281516145a885826144ae565b94506145b3836157f3565b925060208a0199505060018101905061458f565b50829750879550505050505092915050565b6145e28161588f565b82525050565b6145f18161588f565b82525050565b6000614602826157c5565b61460c8185615822565b935061461c818560208601615914565b61462581615947565b840191505092915050565b600061463b826157c5565b6146458185615833565b9350614655818560208601615914565b80840191505092915050565b600061466c826157db565b614676818561584f565b9350614686818560208601615914565b61468f81615947565b840191505092915050565b60006146a5826157db565b6146af8185615860565b93506146bf818560208601615914565b80840191505092915050565b60006146d6826157d0565b6146e0818561583e565b93506146f0818560208601615914565b6146f981615947565b840191505092915050565b60008154600181166000811461472157600181146147465761478a565b607f60028304166147328187615860565b955060ff198316865280860193505061478a565b600282046147548187615860565b955061475f8561579a565b60005b8281101561478157815481890152600182019150602081019050614762565b82880195505050505b505092915050565b600061479f60228361584f565b91507f456e756d657261626c655365743a20696e646578206f7574206f6620626f756e60008301527f64730000000000000000000000000000000000000000000000000000000000006020830152604082019050919050565b600061480560328361584f565b91507f4552433732313a207472616e7366657220746f206e6f6e20455243373231526560008301527f63656976657220696d706c656d656e74657200000000000000000000000000006020830152604082019050919050565b600061486b60278361584f565b91507f497373756572207769746820746869732061646472657373206e6f742072656760008301527f69737465726564000000000000000000000000000000000000000000000000006020830152604082019050919050565b60006148d160268361584f565b91507f4f776e61626c653a206e6577206f776e657220697320746865207a65726f206160008301527f64647265737300000000000000000000000000000000000000000000000000006020830152604082019050919050565b6000614937601c8361584f565b91507f4552433732313a20746f6b656e20616c7265616479206d696e746564000000006000830152602082019050919050565b600061497760298361584f565b91507f4e6f20726f6f74206174747269627574652073706563696669656420696e207460008301527f686520736368656d6500000000000000000000000000000000000000000000006020830152604082019050919050565b60006149dd60248361584f565b91507f4552433732313a207472616e7366657220746f20746865207a65726f2061646460008301527f72657373000000000000000000000000000000000000000000000000000000006020830152604082019050919050565b6000614a4360198361584f565b91507f4552433732313a20617070726f766520746f2063616c6c6572000000000000006000830152602082019050919050565b6000614a83602c8361584f565b91507f4552433732313a206f70657261746f7220717565727920666f72206e6f6e657860008301527f697374656e7420746f6b656e00000000000000000000000000000000000000006020830152604082019050919050565b6000614ae9602b8361584f565b91507f49737375657220776974682074686973206164647265737320616c726561647960008301527f20726567697374657265640000000000000000000000000000000000000000006020830152604082019050919050565b6000614b4f60388361584f565b91507f4552433732313a20617070726f76652063616c6c6572206973206e6f74206f7760008301527f6e6572206e6f7220617070726f76656420666f7220616c6c00000000000000006020830152604082019050919050565b6000614bb5602a8361584f565b91507f4552433732313a2062616c616e636520717565727920666f7220746865207a6560008301527f726f2061646472657373000000000000000000000000000000000000000000006020830152604082019050919050565b6000614c1b60228361584f565b91507f456e756d657261626c654d61703a20696e646578206f7574206f6620626f756e60008301527f64730000000000000000000000000000000000000000000000000000000000006020830152604082019050919050565b6000614c8160208361584f565b91507f4552433732313a206d696e7420746f20746865207a65726f20616464726573736000830152602082019050919050565b6000614cc1602c8361584f565b91507f4552433732313a20617070726f76656420717565727920666f72206e6f6e657860008301527f697374656e7420746f6b656e00000000000000000000000000000000000000006020830152604082019050919050565b6000614d2760208361584f565b91507f4f776e61626c653a2063616c6c6572206973206e6f7420746865206f776e65726000830152602082019050919050565b6000614d6760298361584f565b91507f4552433732313a207472616e73666572206f6620746f6b656e2074686174206960008301527f73206e6f74206f776e00000000000000000000000000000000000000000000006020830152604082019050919050565b6000614dcd602f8361584f565b91507f4552433732314d657461646174613a2055524920717565727920666f72206e6f60008301527f6e6578697374656e7420746f6b656e00000000000000000000000000000000006020830152604082019050919050565b6000614e3360448361584f565b91507f526571756573746564206174747269627574657320646f6573206e6f74206d6160008301527f746368207468652063757272656e7420736368656d65206f662074686520697360208301527f73756572000000000000000000000000000000000000000000000000000000006040830152606082019050919050565b6000614ebf60218361584f565b91507f4552433732313a20617070726f76616c20746f2063757272656e74206f776e6560008301527f72000000000000000000000000000000000000000000000000000000000000006020830152604082019050919050565b6000614f2560318361584f565b91507f4552433732313a207472616e736665722063616c6c6572206973206e6f74206f60008301527f776e6572206e6f7220617070726f7665640000000000000000000000000000006020830152604082019050919050565b6000614f8b601d8361584f565b91507f416464726573733a2063616c6c20746f206e6f6e2d636f6e74726163740000006000830152602082019050919050565b6000614fcb603a8361584f565b91507f4e6f206174747269627574652077697468207468697320636f6d6d69746d656e60008301527f74207265676973746572656420617420746865204973737565720000000000006020830152604082019050919050565b600061503160238361584f565b91507f497373756572206469646e277420646566696e6520616e7920736368656d652060008301527f79657400000000000000000000000000000000000000000000000000000000006020830152604082019050919050565b600061509760308361584f565b91507f4552433732314275726e61626c653a2063616c6c6572206973206e6f74206f7760008301527f6e6572206e6f7220617070726f766564000000000000000000000000000000006020830152604082019050919050565b60006150fd601e8361584f565b91507f696e70757420617272617973206d757374206265206e6f7420656d70747900006000830152602082019050919050565b6000608083016000830151848203600086015261514d82826146cb565b9150506020830151848203602086015261516782826146cb565b9150506040830151848203604086015261518182826146cb565b915050606083015161519660608601826145d9565b508091505092915050565b60006040830160008301516151b960008601826144d1565b50602083015184820360208601526151d182826146cb565b9150508091505092915050565b6151e7816158fb565b82525050565b60006151f98284614630565b915081905092915050565b60006152108285614704565b915061521c828461469a565b91508190509392505050565b600060208201905061523d60008301846144e0565b92915050565b600060808201905061525860008301876144c2565b61526560208301866144e0565b61527260408301856151de565b818103606083015261528481846145f7565b905095945050505050565b600060208201905081810360008301526152a98184614564565b905092915050565b60006020820190506152c660008301846145e8565b92915050565b600060208201905081810360008301526152e68184614661565b905092915050565b6000602082019050818103600083015261530781614792565b9050919050565b60006020820190508181036000830152615327816147f8565b9050919050565b600060208201905081810360008301526153478161485e565b9050919050565b60006020820190508181036000830152615367816148c4565b9050919050565b600060208201905081810360008301526153878161492a565b9050919050565b600060208201905081810360008301526153a78161496a565b9050919050565b600060208201905081810360008301526153c7816149d0565b9050919050565b600060208201905081810360008301526153e781614a36565b9050919050565b6000602082019050818103600083015261540781614a76565b9050919050565b6000602082019050818103600083015261542781614adc565b9050919050565b6000602082019050818103600083015261544781614b42565b9050919050565b6000602082019050818103600083015261546781614ba8565b9050919050565b6000602082019050818103600083015261548781614c0e565b9050919050565b600060208201905081810360008301526154a781614c74565b9050919050565b600060208201905081810360008301526154c781614cb4565b9050919050565b600060208201905081810360008301526154e781614d1a565b9050919050565b6000602082019050818103600083015261550781614d5a565b9050919050565b6000602082019050818103600083015261552781614dc0565b9050919050565b6000602082019050818103600083015261554781614e26565b9050919050565b6000602082019050818103600083015261556781614eb2565b9050919050565b6000602082019050818103600083015261558781614f18565b9050919050565b600060208201905081810360008301526155a781614f7e565b9050919050565b600060208201905081810360008301526155c781614fbe565b9050919050565b600060208201905081810360008301526155e781615024565b9050919050565b600060208201905081810360008301526156078161508a565b9050919050565b60006020820190508181036000830152615627816150f0565b9050919050565b600060208201905061564360008301846151de565b92915050565b600060408201905061565e60008301856151de565b818103602083015261567081846144ef565b90509392505050565b6000604051905081810181811067ffffffffffffffff8211171561569c57600080fd5b8060405250919050565b600067ffffffffffffffff8211156156bd57600080fd5b602082029050602081019050919050565b600067ffffffffffffffff8211156156e557600080fd5b602082029050602081019050919050565b600067ffffffffffffffff82111561570d57600080fd5b601f19601f8301169050602081019050919050565b600067ffffffffffffffff82111561573957600080fd5b601f19601f8301169050602081019050919050565b600067ffffffffffffffff82111561576557600080fd5b601f19601f8301169050602081019050919050565b6000819050602082019050919050565b6000819050602082019050919050565b60008190508160005260206000209050919050565b600081519050919050565b600081519050919050565b600081519050919050565b600081519050919050565b600081519050919050565b6000602082019050919050565b6000602082019050919050565b600082825260208201905092915050565b600082825260208201905092915050565b600082825260208201905092915050565b600081905092915050565b600082825260208201905092915050565b600082825260208201905092915050565b600081905092915050565b6000615876826158db565b9050919050565b6000615888826158db565b9050919050565b60008115159050919050565b6000819050919050565b60007fffffffff0000000000000000000000000000000000000000000000000000000082169050919050565b6000819050919050565b600073ffffffffffffffffffffffffffffffffffffffff82169050919050565b6000819050919050565b82818337600083830152505050565b60005b83811015615932578082015181840152602081019050615917565b83811115615941576000848401525b50505050565b6000601f19601f8301169050919050565b6159618161586b565b811461596c57600080fd5b50565b6159788161588f565b811461598357600080fd5b50565b61598f8161589b565b811461599a57600080fd5b50565b6159a6816158a5565b81146159b157600080fd5b50565b6159bd816158d1565b81146159c857600080fd5b50565b6159d4816158fb565b81146159df57600080fd5b5056fe4552433732313a207472616e7366657220746f206e6f6e20455243373231526563656976657220696d706c656d656e7465724552433732313a206f776e657220717565727920666f72206e6f6e6578697374656e7420746f6b656ea2646970667358221220adf53d56434a6a1c3b035a65fc7fe79b32f7fee59c30d7d66fd9dd6f61e3bec164736f6c63430006020033",
  "source": "// SPDX-License-Identifier: MIT\r\npragma solidity ^0.6.2;\r\npragma experimental ABIEncoderV2;\r\n\r\nimport '@openzeppelin/contracts/token/ERC721/ERC721.sol';\r\nimport '@openzeppelin/contracts/token/ERC721/ERC721Burnable.sol';\r\nimport \"@openzeppelin/contracts/access/Ownable.sol\";\r\nimport \"@openzeppelin/contracts/utils/Counters.sol\";\r\n\r\ncontract O10Identity is ERC721, ERC721Burnable, Ownable {\r\n    using Counters for Counters.Counter;\r\n    using EnumerableSet for EnumerableSet.AddressSet;\r\n\r\n    struct SchemeItem {\r\n        string SchemeName;\r\n    }\r\n    \r\n    struct AttributeDefinition {\r\n        string AttributeName;\r\n        string AttributeScheme;\r\n        string Alias;\r\n        bool IsRoot;\r\n    }\r\n\r\n    struct AttributeRecord {\r\n        bytes32 BindingCommitment;\r\n        bytes32 AssetCommitment;\r\n        string AttributeName;\r\n        int Version;\r\n        uint256 AttributeId;\r\n    }\r\n\r\n    struct IssuerDetails {\r\n        address Address;\r\n        string Alias;\r\n    }\r\n\r\n    struct Issuer {\r\n        IssuerDetails Details;\r\n        bool IsRegistered;\r\n    \r\n        Counters.Counter DefinitionVersion;\r\n        Counters.Counter AttributeId;\r\n        \r\n        // version => attribute definitions\r\n        mapping(uint256 => AttributeDefinition[]) Definitions;\r\n        \r\n        AttributeRecord[] Attributes;\r\n\r\n        mapping(uint256 => AttributeRecord) TokenIdToAttribute;\r\n        mapping(bytes32 => AttributeRecord) AssetCommitmentToAttribute; // For validating that is not burned\r\n        mapping(bytes32 => AttributeRecord) BindingCommitmentToAttribute; // For burning\r\n    }\r\n\r\n    constructor(string memory name, string memory symbol) ERC721(name, symbol) public {}\r\n\r\n    SchemeItem[] _schemeItems;\r\n\r\n    mapping(address => Issuer) _issuers;\r\n    EnumerableSet.AddressSet private _issuerAddresses;\r\n\r\n    Counters.Counter private _tokenId;\r\n\r\n    function register(string memory aliasName) public {\r\n        address issuerAddr = msg.sender;\r\n        require(!_issuers[issuerAddr].IsRegistered, \"Issuer with this address already registered\");\r\n        Issuer storage issuer = _issuers[issuerAddr];\r\n        issuer.IsRegistered = true;\r\n        issuer.Details = IssuerDetails({Address: issuerAddr, Alias: aliasName});\r\n\r\n        _issuerAddresses.add(issuerAddr);\r\n    }\r\n\r\n    function getAllIssuers() view public returns(IssuerDetails[] memory) {\r\n        IssuerDetails[] memory issuerDetails = new IssuerDetails[](_issuerAddresses.length());\r\n\r\n        for (uint256 i = 0; i < _issuerAddresses.length(); i++) {\r\n            address addr = _issuerAddresses.at(i);\r\n            issuerDetails[i] = _issuers[addr].Details;\r\n        }\r\n\r\n        return issuerDetails;\r\n    }\r\n\r\n    function setScheme(AttributeDefinition[] memory definitions) public {\r\n        address issuerAddr = msg.sender;\r\n        require(_issuers[issuerAddr].IsRegistered, \"Issuer with this address not registered\");\r\n        require(definitions.length > 0, \"input arrays must be not empty\");\r\n\r\n        bool rootFound = false;\r\n        for (uint256 i = 0; i < definitions.length; i++) {\r\n            if (definitions[i].IsRoot) {\r\n                rootFound = true;\r\n            }\r\n        }\r\n\r\n        require(rootFound, \"No root attribute specified in the scheme\");\r\n\r\n        _issuers[issuerAddr].DefinitionVersion.increment();\r\n        for (uint256 i = 0; i < definitions.length; i++) {\r\n            _issuers[issuerAddr].Definitions[_issuers[issuerAddr].DefinitionVersion.current()].push(definitions[i]);\r\n        }\r\n    }\r\n\r\n    // function setScheme(address issuerAddr, bool[] memory isRoot, string[] memory schemeNames, string[] memory attributeNames, string[] memory aliases) public payable {\r\n    //     require(!_issuers[issuerAddr].IsRegistered, \"Issuer with this address not registered\");\r\n    //     require(isRoot.length > 0 && schemeNames.length > 0 && attributeNames.length > 0 && aliases.length > 0, \"input arrays must be not empty\");\r\n    //     require(isRoot.length == schemeNames.length && isRoot.length == attributeNames.length && isRoot.length == aliases.length, \"input arrays must be of the same size\");\r\n\r\n    //     bool rootFound = false;\r\n    //     for (uint256 i = 0; i < isRoot.length; i++) {\r\n    //         if(isRoot[i]) {\r\n    //             rootFound = true;\r\n    //         }\r\n    //     }\r\n\r\n    //     require(rootFound, \"No root attribute specified in the scheme\");\r\n\r\n    //     _issuers[issuerAddr].DefinitionVersion.increment();\r\n    //     for (uint256 i = 0; i < isRoot.length; i++) {\r\n    //         _issuers[issuerAddr].Definitions[_issuers[issuerAddr].DefinitionVersion.current()].push(AttributeDefinition({IsRoot: isRoot[i], AttributeScheme: schemeNames[i], AttributeName: attributeNames[i], Alias: aliases[i]}));\r\n    //     }\r\n    // }\r\n\r\n    function getScheme(address issuerAddr) view public returns(uint256, AttributeDefinition[] memory) {\r\n        require(_issuers[issuerAddr].IsRegistered, \"Issuer with this address not registered\");\r\n        require(_issuers[issuerAddr].DefinitionVersion.current() > 0, \"Issuer didn't define any scheme yet\");\r\n\r\n        uint256 idx = _issuers[issuerAddr].DefinitionVersion.current();\r\n        AttributeDefinition[] memory definitions = new AttributeDefinition[](_issuers[issuerAddr].Definitions[idx].length);\r\n\r\n        for (uint256 i = 0; i < definitions.length; i++) {\r\n            definitions[i] = _issuers[issuerAddr].Definitions[idx][i];\r\n        }\r\n\r\n        return (idx, definitions);\r\n    }\r\n\r\n    function issueAttributes(AttributeRecord[] memory attributeRecords) public {\r\n        address issuerAddr = msg.sender;\r\n        require(_issuers[issuerAddr].IsRegistered, \"Issuer with this address not registered\");\r\n        require(_issuers[issuerAddr].DefinitionVersion.current() > 0, \"Issuer didn't define any scheme yet\");\r\n\r\n        uint256 idx = _issuers[issuerAddr].DefinitionVersion.current();\r\n\r\n        for (uint256 i = 0; i < attributeRecords.length; i++) {\r\n            bool found = false;\r\n\r\n            for (uint256 j = 0; j < _issuers[issuerAddr].Definitions[idx].length; j++) {\r\n                if(equal(attributeRecords[i].AttributeName, _issuers[issuerAddr].Definitions[idx][j].AttributeName)) {\r\n                    found = true;\r\n                    break;\r\n                }\r\n            }\r\n\r\n            require(found, \"Requested attributes does not match the current scheme of the issuer\");\r\n        }\r\n\r\n        for (uint256 i = 0; i < attributeRecords.length; i++) {\r\n            _issuers[issuerAddr].AttributeId.increment();\r\n\r\n            if(_issuers[issuerAddr].BindingCommitmentToAttribute[attributeRecords[i].BindingCommitment].AttributeId > 0) {\r\n                burn(_issuers[issuerAddr].BindingCommitmentToAttribute[attributeRecords[i].BindingCommitment].AttributeId);\r\n            }\r\n\r\n            uint256 attributeId = _issuers[issuerAddr].AttributeId.current();\r\n\r\n            attributeRecords[i].AttributeId = attributeId;\r\n            _issuers[issuerAddr].Attributes.push(attributeRecords[i]);\r\n            _issuers[issuerAddr].TokenIdToAttribute[attributeId] = attributeRecords[i];\r\n            _issuers[issuerAddr].AssetCommitmentToAttribute[attributeRecords[i].AssetCommitment] = attributeRecords[i];\r\n            _issuers[issuerAddr].BindingCommitmentToAttribute[attributeRecords[i].BindingCommitment] = attributeRecords[i];\r\n\r\n            _mint(issuerAddr, attributeId);\r\n        }\r\n    }\r\n\r\n    function checkRootAttributeValid(address issuerAddr, bytes32 attributeCommitment) view public returns(bool) {\r\n        require(_issuers[issuerAddr].IsRegistered, \"Issuer with this address not registered\");\r\n        require(_issuers[issuerAddr].DefinitionVersion.current() > 0, \"Issuer didn't define any scheme yet\");\r\n        require(_issuers[issuerAddr].AssetCommitmentToAttribute[attributeCommitment].AttributeId > 0, \"No attribute with this commitment registered at the Issuer\");\r\n\r\n        return _exists(_issuers[issuerAddr].AssetCommitmentToAttribute[attributeCommitment].AttributeId);\r\n    }\r\n\r\n    function compare(string memory _a, string memory _b) private pure returns (int) {\r\n        bytes memory a = bytes(_a);\r\n        bytes memory b = bytes(_b);\r\n        uint minLength = a.length;\r\n        if (b.length < minLength) minLength = b.length;\r\n        //@todo unroll the loop into increments of 32 and do full 32 byte comparisons\r\n        for (uint i = 0; i < minLength; i ++)\r\n            if (a[i] < b[i])\r\n                return -1;\r\n            else if (a[i] > b[i])\r\n                return 1;\r\n        if (a.length < b.length)\r\n            return -1;\r\n        else if (a.length > b.length)\r\n            return 1;\r\n        else\r\n            return 0;\r\n    }\r\n\r\n    /// @dev Compares two strings and returns true iff they are equal.\r\n    function equal(string memory _a, string memory _b) private pure returns (bool) {\r\n        return compare(_a, _b) == 0;\r\n    }\r\n}",
  "sourcePath": "C:/Dev/O10/Integrations/Rsk/Contracts/O10Idp/contracts/O10Identity.sol",
  "compiler": {
    "name": "solc",
    "version": "0.6.2+commit.bacdbe57.Emscripten.clang"
  },
  "schemaVersion": "3.3.0",
  "updatedAt": "2020-11-01T11:52:25.191Z",
  "networkType": "ethereum",
  "devdoc": {
    "methods": {
      "approve(address,uint256)": {
        "details": "See {IERC721-approve}."
      },
      "balanceOf(address)": {
        "details": "See {IERC721-balanceOf}."
      },
      "baseURI()": {
        "details": "Returns the base URI set via {_setBaseURI}. This will be automatically added as a prefix in {tokenURI} to each token's URI, or to the token ID if no specific URI is set for that token ID."
      },
      "burn(uint256)": {
        "details": "Burns `tokenId`. See {ERC721-_burn}.     * Requirements:     * - The caller must own `tokenId` or be an approved operator."
      },
      "getApproved(uint256)": {
        "details": "See {IERC721-getApproved}."
      },
      "isApprovedForAll(address,address)": {
        "details": "See {IERC721-isApprovedForAll}."
      },
      "name()": {
        "details": "See {IERC721Metadata-name}."
      },
      "owner()": {
        "details": "Returns the address of the current owner."
      },
      "ownerOf(uint256)": {
        "details": "See {IERC721-ownerOf}."
      },
      "renounceOwnership()": {
        "details": "Leaves the contract without owner. It will not be possible to call `onlyOwner` functions anymore. Can only be called by the current owner.     * NOTE: Renouncing ownership will leave the contract without an owner, thereby removing any functionality that is only available to the owner."
      },
      "safeTransferFrom(address,address,uint256)": {
        "details": "See {IERC721-safeTransferFrom}."
      },
      "safeTransferFrom(address,address,uint256,bytes)": {
        "details": "See {IERC721-safeTransferFrom}."
      },
      "setApprovalForAll(address,bool)": {
        "details": "See {IERC721-setApprovalForAll}."
      },
      "supportsInterface(bytes4)": {
        "details": "See {IERC165-supportsInterface}.     * Time complexity O(1), guaranteed to always use less than 30 000 gas."
      },
      "symbol()": {
        "details": "See {IERC721Metadata-symbol}."
      },
      "tokenByIndex(uint256)": {
        "details": "See {IERC721Enumerable-tokenByIndex}."
      },
      "tokenOfOwnerByIndex(address,uint256)": {
        "details": "See {IERC721Enumerable-tokenOfOwnerByIndex}."
      },
      "tokenURI(uint256)": {
        "details": "See {IERC721Metadata-tokenURI}."
      },
      "totalSupply()": {
        "details": "See {IERC721Enumerable-totalSupply}."
      },
      "transferFrom(address,address,uint256)": {
        "details": "See {IERC721-transferFrom}."
      },
      "transferOwnership(address)": {
        "details": "Transfers ownership of the contract to a new account (`newOwner`). Can only be called by the current owner."
      }
    }
  },
  "userdoc": {
    "methods": {}
  }
}