{
  "contractName": "O10Identity",
  "abi": [
    {
      "inputs": [
        {
          "internalType": "string",
          "name": "name",
          "type": "string"
        },
        {
          "internalType": "string",
          "name": "symbol",
          "type": "string"
        }
      ],
      "stateMutability": "nonpayable",
      "type": "constructor"
    },
    {
      "anonymous": false,
      "inputs": [
        {
          "indexed": true,
          "internalType": "address",
          "name": "owner",
          "type": "address"
        },
        {
          "indexed": true,
          "internalType": "address",
          "name": "approved",
          "type": "address"
        },
        {
          "indexed": true,
          "internalType": "uint256",
          "name": "tokenId",
          "type": "uint256"
        }
      ],
      "name": "Approval",
      "type": "event"
    },
    {
      "anonymous": false,
      "inputs": [
        {
          "indexed": true,
          "internalType": "address",
          "name": "owner",
          "type": "address"
        },
        {
          "indexed": true,
          "internalType": "address",
          "name": "operator",
          "type": "address"
        },
        {
          "indexed": false,
          "internalType": "bool",
          "name": "approved",
          "type": "bool"
        }
      ],
      "name": "ApprovalForAll",
      "type": "event"
    },
    {
      "anonymous": false,
      "inputs": [
        {
          "indexed": true,
          "internalType": "address",
          "name": "previousOwner",
          "type": "address"
        },
        {
          "indexed": true,
          "internalType": "address",
          "name": "newOwner",
          "type": "address"
        }
      ],
      "name": "OwnershipTransferred",
      "type": "event"
    },
    {
      "anonymous": false,
      "inputs": [
        {
          "indexed": true,
          "internalType": "address",
          "name": "from",
          "type": "address"
        },
        {
          "indexed": true,
          "internalType": "address",
          "name": "to",
          "type": "address"
        },
        {
          "indexed": true,
          "internalType": "uint256",
          "name": "tokenId",
          "type": "uint256"
        }
      ],
      "name": "Transfer",
      "type": "event"
    },
    {
      "inputs": [
        {
          "internalType": "address",
          "name": "to",
          "type": "address"
        },
        {
          "internalType": "uint256",
          "name": "tokenId",
          "type": "uint256"
        }
      ],
      "name": "approve",
      "outputs": [],
      "stateMutability": "nonpayable",
      "type": "function"
    },
    {
      "inputs": [
        {
          "internalType": "address",
          "name": "owner",
          "type": "address"
        }
      ],
      "name": "balanceOf",
      "outputs": [
        {
          "internalType": "uint256",
          "name": "",
          "type": "uint256"
        }
      ],
      "stateMutability": "view",
      "type": "function",
      "constant": true
    },
    {
      "inputs": [],
      "name": "baseURI",
      "outputs": [
        {
          "internalType": "string",
          "name": "",
          "type": "string"
        }
      ],
      "stateMutability": "view",
      "type": "function",
      "constant": true
    },
    {
      "inputs": [
        {
          "internalType": "uint256",
          "name": "tokenId",
          "type": "uint256"
        }
      ],
      "name": "burn",
      "outputs": [],
      "stateMutability": "nonpayable",
      "type": "function"
    },
    {
      "inputs": [
        {
          "internalType": "uint256",
          "name": "tokenId",
          "type": "uint256"
        }
      ],
      "name": "getApproved",
      "outputs": [
        {
          "internalType": "address",
          "name": "",
          "type": "address"
        }
      ],
      "stateMutability": "view",
      "type": "function",
      "constant": true
    },
    {
      "inputs": [
        {
          "internalType": "address",
          "name": "owner",
          "type": "address"
        },
        {
          "internalType": "address",
          "name": "operator",
          "type": "address"
        }
      ],
      "name": "isApprovedForAll",
      "outputs": [
        {
          "internalType": "bool",
          "name": "",
          "type": "bool"
        }
      ],
      "stateMutability": "view",
      "type": "function",
      "constant": true
    },
    {
      "inputs": [],
      "name": "name",
      "outputs": [
        {
          "internalType": "string",
          "name": "",
          "type": "string"
        }
      ],
      "stateMutability": "view",
      "type": "function",
      "constant": true
    },
    {
      "inputs": [],
      "name": "owner",
      "outputs": [
        {
          "internalType": "address",
          "name": "",
          "type": "address"
        }
      ],
      "stateMutability": "view",
      "type": "function",
      "constant": true
    },
    {
      "inputs": [
        {
          "internalType": "uint256",
          "name": "tokenId",
          "type": "uint256"
        }
      ],
      "name": "ownerOf",
      "outputs": [
        {
          "internalType": "address",
          "name": "",
          "type": "address"
        }
      ],
      "stateMutability": "view",
      "type": "function",
      "constant": true
    },
    {
      "inputs": [],
      "name": "renounceOwnership",
      "outputs": [],
      "stateMutability": "nonpayable",
      "type": "function"
    },
    {
      "inputs": [
        {
          "internalType": "address",
          "name": "from",
          "type": "address"
        },
        {
          "internalType": "address",
          "name": "to",
          "type": "address"
        },
        {
          "internalType": "uint256",
          "name": "tokenId",
          "type": "uint256"
        }
      ],
      "name": "safeTransferFrom",
      "outputs": [],
      "stateMutability": "nonpayable",
      "type": "function"
    },
    {
      "inputs": [
        {
          "internalType": "address",
          "name": "from",
          "type": "address"
        },
        {
          "internalType": "address",
          "name": "to",
          "type": "address"
        },
        {
          "internalType": "uint256",
          "name": "tokenId",
          "type": "uint256"
        },
        {
          "internalType": "bytes",
          "name": "_data",
          "type": "bytes"
        }
      ],
      "name": "safeTransferFrom",
      "outputs": [],
      "stateMutability": "nonpayable",
      "type": "function"
    },
    {
      "inputs": [
        {
          "internalType": "address",
          "name": "operator",
          "type": "address"
        },
        {
          "internalType": "bool",
          "name": "approved",
          "type": "bool"
        }
      ],
      "name": "setApprovalForAll",
      "outputs": [],
      "stateMutability": "nonpayable",
      "type": "function"
    },
    {
      "inputs": [
        {
          "internalType": "bytes4",
          "name": "interfaceId",
          "type": "bytes4"
        }
      ],
      "name": "supportsInterface",
      "outputs": [
        {
          "internalType": "bool",
          "name": "",
          "type": "bool"
        }
      ],
      "stateMutability": "view",
      "type": "function",
      "constant": true
    },
    {
      "inputs": [],
      "name": "symbol",
      "outputs": [
        {
          "internalType": "string",
          "name": "",
          "type": "string"
        }
      ],
      "stateMutability": "view",
      "type": "function",
      "constant": true
    },
    {
      "inputs": [
        {
          "internalType": "uint256",
          "name": "index",
          "type": "uint256"
        }
      ],
      "name": "tokenByIndex",
      "outputs": [
        {
          "internalType": "uint256",
          "name": "",
          "type": "uint256"
        }
      ],
      "stateMutability": "view",
      "type": "function",
      "constant": true
    },
    {
      "inputs": [
        {
          "internalType": "address",
          "name": "owner",
          "type": "address"
        },
        {
          "internalType": "uint256",
          "name": "index",
          "type": "uint256"
        }
      ],
      "name": "tokenOfOwnerByIndex",
      "outputs": [
        {
          "internalType": "uint256",
          "name": "",
          "type": "uint256"
        }
      ],
      "stateMutability": "view",
      "type": "function",
      "constant": true
    },
    {
      "inputs": [
        {
          "internalType": "uint256",
          "name": "tokenId",
          "type": "uint256"
        }
      ],
      "name": "tokenURI",
      "outputs": [
        {
          "internalType": "string",
          "name": "",
          "type": "string"
        }
      ],
      "stateMutability": "view",
      "type": "function",
      "constant": true
    },
    {
      "inputs": [],
      "name": "totalSupply",
      "outputs": [
        {
          "internalType": "uint256",
          "name": "",
          "type": "uint256"
        }
      ],
      "stateMutability": "view",
      "type": "function",
      "constant": true
    },
    {
      "inputs": [
        {
          "internalType": "address",
          "name": "from",
          "type": "address"
        },
        {
          "internalType": "address",
          "name": "to",
          "type": "address"
        },
        {
          "internalType": "uint256",
          "name": "tokenId",
          "type": "uint256"
        }
      ],
      "name": "transferFrom",
      "outputs": [],
      "stateMutability": "nonpayable",
      "type": "function"
    },
    {
      "inputs": [
        {
          "internalType": "address",
          "name": "newOwner",
          "type": "address"
        }
      ],
      "name": "transferOwnership",
      "outputs": [],
      "stateMutability": "nonpayable",
      "type": "function"
    },
    {
      "inputs": [],
      "name": "register",
      "outputs": [],
      "stateMutability": "payable",
      "type": "function",
      "payable": true
    },
    {
      "inputs": [
        {
          "components": [
            {
              "internalType": "string",
              "name": "AttributeName",
              "type": "string"
            },
            {
              "internalType": "string",
              "name": "AttributeScheme",
              "type": "string"
            },
            {
              "internalType": "string",
              "name": "Alias",
              "type": "string"
            },
            {
              "internalType": "bool",
              "name": "IsRoot",
              "type": "bool"
            }
          ],
          "internalType": "struct O10Identity.AttributeDefinition[]",
          "name": "definitions",
          "type": "tuple[]"
        }
      ],
      "name": "setScheme",
      "outputs": [],
      "stateMutability": "payable",
      "type": "function",
      "payable": true
    },
    {
      "inputs": [
        {
          "internalType": "address",
          "name": "issuerAddr",
          "type": "address"
        }
      ],
      "name": "getScheme",
      "outputs": [
        {
          "internalType": "uint256",
          "name": "",
          "type": "uint256"
        },
        {
          "components": [
            {
              "internalType": "string",
              "name": "AttributeName",
              "type": "string"
            },
            {
              "internalType": "string",
              "name": "AttributeScheme",
              "type": "string"
            },
            {
              "internalType": "string",
              "name": "Alias",
              "type": "string"
            },
            {
              "internalType": "bool",
              "name": "IsRoot",
              "type": "bool"
            }
          ],
          "internalType": "struct O10Identity.AttributeDefinition[]",
          "name": "",
          "type": "tuple[]"
        }
      ],
      "stateMutability": "payable",
      "type": "function",
      "payable": true
    },
    {
      "inputs": [
        {
          "components": [
            {
              "internalType": "bytes32",
              "name": "BindingCommitment",
              "type": "bytes32"
            },
            {
              "internalType": "bytes32",
              "name": "AssetCommitment",
              "type": "bytes32"
            },
            {
              "internalType": "string",
              "name": "AttributeName",
              "type": "string"
            },
            {
              "internalType": "int256",
              "name": "Version",
              "type": "int256"
            },
            {
              "internalType": "uint256",
              "name": "AttributeId",
              "type": "uint256"
            }
          ],
          "internalType": "struct O10Identity.AttributeRecord[]",
          "name": "attributeRecords",
          "type": "tuple[]"
        }
      ],
      "name": "issueAttributes",
      "outputs": [],
      "stateMutability": "payable",
      "type": "function",
      "payable": true
    }
  ],
  "bytecode": "0x60806040523480156200001157600080fd5b50604051620055ef380380620055ef833981810160405262000037919081019062000371565b8181620000516301ffc9a760e01b6200018660201b60201c565b81600690805190602001906200006992919062000266565b5080600790805190602001906200008292919062000266565b506200009b6380ac58cd60e01b6200018660201b60201c565b620000b3635b5e139f60e01b6200018660201b60201c565b620000cb63780e9d6360e01b6200018660201b60201c565b50506000620000df6200025e60201b60201c565b905080600a60006101000a81548173ffffffffffffffffffffffffffffffffffffffff021916908373ffffffffffffffffffffffffffffffffffffffff1602179055508073ffffffffffffffffffffffffffffffffffffffff16600073ffffffffffffffffffffffffffffffffffffffff167f8be0079c531659141344cd1fd0a4f28419497f9722a3daafe3b4186f6b6457e060405160405180910390a3505050620004ea565b63ffffffff60e01b817bffffffffffffffffffffffffffffffffffffffffffffffffffffffff19161415620001f2576040517f08c379a0000000000000000000000000000000000000000000000000000000008152600401620001e99062000426565b60405180910390fd5b6001600080837bffffffffffffffffffffffffffffffffffffffffffffffffffffffff19167bffffffffffffffffffffffffffffffffffffffffffffffffffffffff1916815260200190815260200160002060006101000a81548160ff02191690831515021790555050565b600033905090565b828054600181600116156101000203166002900490600052602060002090601f016020900481019282601f10620002a957805160ff1916838001178555620002da565b82800160010185558215620002da579182015b82811115620002d9578251825591602001919060010190620002bc565b5b509050620002e99190620002ed565b5090565b6200031291905b808211156200030e576000816000905550600101620002f4565b5090565b90565b600082601f8301126200032757600080fd5b81516200033e620003388262000476565b62000448565b915080825260208301602083018583830111156200035b57600080fd5b62000368838284620004b4565b50505092915050565b600080604083850312156200038557600080fd5b600083015167ffffffffffffffff811115620003a057600080fd5b620003ae8582860162000315565b925050602083015167ffffffffffffffff811115620003cc57600080fd5b620003da8582860162000315565b9150509250929050565b6000620003f3601c83620004a3565b91507f4552433136353a20696e76616c696420696e74657266616365206964000000006000830152602082019050919050565b600060208201905081810360008301526200044181620003e4565b9050919050565b6000604051905081810181811067ffffffffffffffff821117156200046c57600080fd5b8060405250919050565b600067ffffffffffffffff8211156200048e57600080fd5b601f19601f8301169050602081019050919050565b600082825260208201905092915050565b60005b83811015620004d4578082015181840152602081019050620004b7565b83811115620004e4576000848401525b50505050565b6150f580620004fa6000396000f3fe6080604052600436106101665760003560e01c80634f6ccce7116100d157806395d89b411161008a578063c87b56dd11610064578063c87b56dd14610514578063e985e9c514610551578063e9c88cf71461058e578063f2fde38b146105aa57610166565b806395d89b4114610497578063a22cb465146104c2578063b88d4fde146104eb57610166565b80634f6ccce7146103735780636352211e146103b05780636c0360eb146103ed57806370a0823114610418578063715018a6146104555780638da5cb5b1461046c57610166565b806323b872dd1161012357806323b872dd1461026e5780632f745c591461029757806335009059146102d45780633730ab40146102f057806342842e0e1461032157806342966c681461034a57610166565b806301ffc9a71461016b57806306fdde03146101a8578063081812fc146101d3578063095ea7b31461021057806318160ddd146102395780631aa3a00814610264575b600080fd5b34801561017757600080fd5b50610192600480360361018d9190810190613c3b565b6105d3565b60405161019f91906149b8565b60405180910390f35b3480156101b457600080fd5b506101bd61063a565b6040516101ca91906149d3565b60405180910390f35b3480156101df57600080fd5b506101fa60048036036101f59190810190613c8d565b6106dc565b6040516102079190614951565b60405180910390f35b34801561021c57600080fd5b5061023760048036036102329190810190613b7d565b610761565b005b34801561024557600080fd5b5061024e610879565b60405161025b9190614d15565b60405180910390f35b61026c61088a565b005b34801561027a57600080fd5b5061029560048036036102909190810190613a77565b610983565b005b3480156102a357600080fd5b506102be60048036036102b99190810190613b7d565b6109e3565b6040516102cb9190614d15565b60405180910390f35b6102ee60048036036102e99190810190613bfa565b610a3e565b005b61030a60048036036103059190810190613a12565b61121a565b604051610318929190614d30565b60405180910390f35b34801561032d57600080fd5b5061034860048036036103439190810190613a77565b6116d6565b005b34801561035657600080fd5b50610371600480360361036c9190810190613c8d565b6116f6565b005b34801561037f57600080fd5b5061039a60048036036103959190810190613c8d565b611752565b6040516103a79190614d15565b60405180910390f35b3480156103bc57600080fd5b506103d760048036036103d29190810190613c8d565b611775565b6040516103e49190614951565b60405180910390f35b3480156103f957600080fd5b506104026117ac565b60405161040f91906149d3565b60405180910390f35b34801561042457600080fd5b5061043f600480360361043a9190810190613a12565b61184e565b60405161044c9190614d15565b60405180910390f35b34801561046157600080fd5b5061046a61190d565b005b34801561047857600080fd5b50610481611a65565b60405161048e9190614951565b60405180910390f35b3480156104a357600080fd5b506104ac611a8f565b6040516104b991906149d3565b60405180910390f35b3480156104ce57600080fd5b506104e960048036036104e49190810190613b41565b611b31565b005b3480156104f757600080fd5b50610512600480360361050d9190810190613ac6565b611cb2565b005b34801561052057600080fd5b5061053b60048036036105369190810190613c8d565b611d14565b60405161054891906149d3565b60405180910390f35b34801561055d57600080fd5b5061057860048036036105739190810190613a3b565b611e9f565b60405161058591906149b8565b60405180910390f35b6105a860048036036105a39190810190613bb9565b611f33565b005b3480156105b657600080fd5b506105d160048036036105cc9190810190613a12565b61224e565b005b6000806000837bffffffffffffffffffffffffffffffffffffffffffffffffffffffff19167bffffffffffffffffffffffffffffffffffffffffffffffffffffffff1916815260200190815260200160002060009054906101000a900460ff169050919050565b606060068054600181600116156101000203166002900480601f0160208091040260200160405190810160405280929190818152602001828054600181600116156101000203166002900480156106d25780601f106106a7576101008083540402835291602001916106d2565b820191906000526020600020905b8154815290600101906020018083116106b557829003601f168201915b5050505050905090565b60006106e782612415565b610726576040517f08c379a000000000000000000000000000000000000000000000000000000000815260040161071d90614bb5565b60405180910390fd5b6004600083815260200190815260200160002060009054906101000a900473ffffffffffffffffffffffffffffffffffffffff169050919050565b600061076c82611775565b90508073ffffffffffffffffffffffffffffffffffffffff168373ffffffffffffffffffffffffffffffffffffffff1614156107dd576040517f08c379a00000000000000000000000000000000000000000000000000000000081526004016107d490614c55565b60405180910390fd5b8073ffffffffffffffffffffffffffffffffffffffff166107fc612432565b73ffffffffffffffffffffffffffffffffffffffff16148061082b575061082a81610825612432565b611e9f565b5b61086a576040517f08c379a000000000000000000000000000000000000000000000000000000000815260040161086190614b35565b60405180910390fd5b610874838361243a565b505050565b600061088560026124f3565b905090565b6000339050600c60008273ffffffffffffffffffffffffffffffffffffffff1673ffffffffffffffffffffffffffffffffffffffff16815260200190815260200160002060000160149054906101000a900460ff161561091f576040517f08c379a000000000000000000000000000000000000000000000000000000000815260040161091690614b15565b60405180910390fd5b6000600c60008373ffffffffffffffffffffffffffffffffffffffff1673ffffffffffffffffffffffffffffffffffffffff168152602001908152602001600020905060018160000160146101000a81548160ff0219169083151502179055505050565b61099461098e612432565b82612508565b6109d3576040517f08c379a00000000000000000000000000000000000000000000000000000000081526004016109ca90614c75565b60405180910390fd5b6109de8383836125e6565b505050565b6000610a3682600160008673ffffffffffffffffffffffffffffffffffffffff1673ffffffffffffffffffffffffffffffffffffffff1681526020019081526020016000206127fd90919063ffffffff16565b905092915050565b6000339050600c60008273ffffffffffffffffffffffffffffffffffffffff1673ffffffffffffffffffffffffffffffffffffffff16815260200190815260200160002060000160149054906101000a900460ff1615610ad3576040517f08c379a0000000000000000000000000000000000000000000000000000000008152600401610aca90614a35565b60405180910390fd5b6000610b1f600c60008473ffffffffffffffffffffffffffffffffffffffff1673ffffffffffffffffffffffffffffffffffffffff168152602001908152602001600020600101612817565b11610b5f576040517f08c379a0000000000000000000000000000000000000000000000000000000008152600401610b5690614cb5565b60405180910390fd5b6000610bab600c60008473ffffffffffffffffffffffffffffffffffffffff1673ffffffffffffffffffffffffffffffffffffffff168152602001908152602001600020600101612817565b90506060600c60008473ffffffffffffffffffffffffffffffffffffffff1673ffffffffffffffffffffffffffffffffffffffff168152602001908152602001600020600301600083815260200190815260200160002080549050604051908082528060200260200182016040528015610c3f57816020015b610c2c61357c565b815260200190600190039081610c245790505b50905060008090505b8151811015610d4857600080905060008090505b8651811015610cf957838381518110610c7157fe5b602002602001015160000151604051602001610c8d9190614916565b60405160208183030381529060405280519060200120878281518110610caf57fe5b602002602001015160400151604051602001610ccb9190614916565b604051602081830303815290604052805190602001201415610cec57600191505b8080600101915050610c5c565b5080610d3a576040517f08c379a0000000000000000000000000000000000000000000000000000000008152600401610d3190614c35565b60405180910390fd5b508080600101915050610c48565b5060008090505b845181101561121357610da2600c60008673ffffffffffffffffffffffffffffffffffffffff1673ffffffffffffffffffffffffffffffffffffffff168152602001908152602001600020600201612825565b6000600c60008673ffffffffffffffffffffffffffffffffffffffff1673ffffffffffffffffffffffffffffffffffffffff1681526020019081526020016000206007016000878481518110610df457fe5b6020026020010151600001518152602001908152602001600020600401541115610e8f57610e8e600c60008673ffffffffffffffffffffffffffffffffffffffff1673ffffffffffffffffffffffffffffffffffffffff1681526020019081526020016000206007016000878481518110610e6b57fe5b60200260200101516000015181526020019081526020016000206004015461283b565b5b6000610edb600c60008773ffffffffffffffffffffffffffffffffffffffff1673ffffffffffffffffffffffffffffffffffffffff168152602001908152602001600020600201612817565b905080868381518110610eea57fe5b60200260200101516080018181525050600c60008673ffffffffffffffffffffffffffffffffffffffff1673ffffffffffffffffffffffffffffffffffffffff168152602001908152602001600020600401868381518110610f4857fe5b6020026020010151908060018154018082558091505060019003906000526020600020906005020160009091909190915060008201518160000155602082015181600101556040820151816002019080519060200190610fa99291906135a6565b5060608201518160030155608082015181600401555050858281518110610fcc57fe5b6020026020010151600c60008773ffffffffffffffffffffffffffffffffffffffff1673ffffffffffffffffffffffffffffffffffffffff1681526020019081526020016000206005016000838152602001908152602001600020600082015181600001556020820151816001015560408201518160020190805190602001906110579291906135a6565b50606082015181600301556080820151816004015590505085828151811061107b57fe5b6020026020010151600c60008773ffffffffffffffffffffffffffffffffffffffff1673ffffffffffffffffffffffffffffffffffffffff16815260200190815260200160002060060160008885815181106110d357fe5b60200260200101516020015181526020019081526020016000206000820151816000015560208201518160010155604082015181600201908051906020019061111d9291906135a6565b50606082015181600301556080820151816004015590505085828151811061114157fe5b6020026020010151600c60008773ffffffffffffffffffffffffffffffffffffffff1673ffffffffffffffffffffffffffffffffffffffff168152602001908152602001600020600701600088858151811061119957fe5b6020026020010151600001518152602001908152602001600020600082015181600001556020820151816001015560408201518160020190805190602001906111e39291906135a6565b5060608201518160030155608082015181600401559050506112058582612975565b508080600101915050610d4f565b5050505050565b60006060600c60008473ffffffffffffffffffffffffffffffffffffffff1673ffffffffffffffffffffffffffffffffffffffff16815260200190815260200160002060000160149054906101000a900460ff16156112ae576040517f08c379a00000000000000000000000000000000000000000000000000000000081526004016112a590614a35565b60405180910390fd5b60006112fa600c60008673ffffffffffffffffffffffffffffffffffffffff1673ffffffffffffffffffffffffffffffffffffffff168152602001908152602001600020600101612817565b1161133a576040517f08c379a000000000000000000000000000000000000000000000000000000000815260040161133190614cb5565b60405180910390fd5b6000611386600c60008673ffffffffffffffffffffffffffffffffffffffff1673ffffffffffffffffffffffffffffffffffffffff168152602001908152602001600020600101612817565b90506060600c60008673ffffffffffffffffffffffffffffffffffffffff1673ffffffffffffffffffffffffffffffffffffffff16815260200190815260200160002060030160008381526020019081526020016000208054905060405190808252806020026020018201604052801561141a57816020015b61140761357c565b8152602001906001900390816113ff5790505b50905060008090505b81518110156116c857600c60008773ffffffffffffffffffffffffffffffffffffffff1673ffffffffffffffffffffffffffffffffffffffff1681526020019081526020016000206003016000848152602001908152602001600020818154811061148a57fe5b9060005260206000209060040201604051806080016040529081600082018054600181600116156101000203166002900480601f01602080910402602001604051908101604052809291908181526020018280546001816001161561010002031660029004801561153c5780601f106115115761010080835404028352916020019161153c565b820191906000526020600020905b81548152906001019060200180831161151f57829003601f168201915b50505050508152602001600182018054600181600116156101000203166002900480601f0160208091040260200160405190810160405280929190818152602001828054600181600116156101000203166002900480156115de5780601f106115b3576101008083540402835291602001916115de565b820191906000526020600020905b8154815290600101906020018083116115c157829003601f168201915b50505050508152602001600282018054600181600116156101000203166002900480601f0160208091040260200160405190810160405280929190818152602001828054600181600116156101000203166002900480156116805780601f1061165557610100808354040283529160200191611680565b820191906000526020600020905b81548152906001019060200180831161166357829003601f168201915b505050505081526020016003820160009054906101000a900460ff1615151515815250508282815181106116b057fe5b60200260200101819052508080600101915050611423565b508181935093505050915091565b6116f183838360405180602001604052806000815250611cb2565b505050565b611707611701612432565b82612508565b611746576040517f08c379a000000000000000000000000000000000000000000000000000000000815260040161173d90614cd5565b60405180910390fd5b61174f8161283b565b50565b600080611769836002612b0390919063ffffffff16565b50905080915050919050565b60006117a582604051806060016040528060298152602001615097602991396002612b329092919063ffffffff16565b9050919050565b606060098054600181600116156101000203166002900480601f0160208091040260200160405190810160405280929190818152602001828054600181600116156101000203166002900480156118445780601f1061181957610100808354040283529160200191611844565b820191906000526020600020905b81548152906001019060200180831161182757829003601f168201915b5050505050905090565b60008073ffffffffffffffffffffffffffffffffffffffff168273ffffffffffffffffffffffffffffffffffffffff1614156118bf576040517f08c379a00000000000000000000000000000000000000000000000000000000081526004016118b690614b55565b60405180910390fd5b611906600160008473ffffffffffffffffffffffffffffffffffffffff1673ffffffffffffffffffffffffffffffffffffffff168152602001908152602001600020612b51565b9050919050565b611915612432565b73ffffffffffffffffffffffffffffffffffffffff16600a60009054906101000a900473ffffffffffffffffffffffffffffffffffffffff1673ffffffffffffffffffffffffffffffffffffffff16146119a4576040517f08c379a000000000000000000000000000000000000000000000000000000000815260040161199b90614bd5565b60405180910390fd5b600073ffffffffffffffffffffffffffffffffffffffff16600a60009054906101000a900473ffffffffffffffffffffffffffffffffffffffff1673ffffffffffffffffffffffffffffffffffffffff167f8be0079c531659141344cd1fd0a4f28419497f9722a3daafe3b4186f6b6457e060405160405180910390a36000600a60006101000a81548173ffffffffffffffffffffffffffffffffffffffff021916908373ffffffffffffffffffffffffffffffffffffffff160217905550565b6000600a60009054906101000a900473ffffffffffffffffffffffffffffffffffffffff16905090565b606060078054600181600116156101000203166002900480601f016020809104026020016040519081016040528092919081815260200182805460018160011615610100020316600290048015611b275780601f10611afc57610100808354040283529160200191611b27565b820191906000526020600020905b815481529060010190602001808311611b0a57829003601f168201915b5050505050905090565b611b39612432565b73ffffffffffffffffffffffffffffffffffffffff168273ffffffffffffffffffffffffffffffffffffffff161415611ba7576040517f08c379a0000000000000000000000000000000000000000000000000000000008152600401611b9e90614ad5565b60405180910390fd5b8060056000611bb4612432565b73ffffffffffffffffffffffffffffffffffffffff1673ffffffffffffffffffffffffffffffffffffffff16815260200190815260200160002060008473ffffffffffffffffffffffffffffffffffffffff1673ffffffffffffffffffffffffffffffffffffffff16815260200190815260200160002060006101000a81548160ff0219169083151502179055508173ffffffffffffffffffffffffffffffffffffffff16611c61612432565b73ffffffffffffffffffffffffffffffffffffffff167f17307eab39ab6107e8899845ad3d59bd9653f200f220920489ca2b5937696c3183604051611ca691906149b8565b60405180910390a35050565b611cc3611cbd612432565b83612508565b611d02576040517f08c379a0000000000000000000000000000000000000000000000000000000008152600401611cf990614c75565b60405180910390fd5b611d0e84848484612b66565b50505050565b6060611d1f82612415565b611d5e576040517f08c379a0000000000000000000000000000000000000000000000000000000008152600401611d5590614c15565b60405180910390fd5b6060600860008481526020019081526020016000208054600181600116156101000203166002900480601f016020809104026020016040519081016040528092919081815260200182805460018160011615610100020316600290048015611e075780601f10611ddc57610100808354040283529160200191611e07565b820191906000526020600020905b815481529060010190602001808311611dea57829003601f168201915b50505050509050600060098054600181600116156101000203166002900490501415611e365780915050611e9a565b600081511115611e6b57600981604051602001611e5492919061492d565b604051602081830303815290604052915050611e9a565b6009611e7684612bc2565b604051602001611e8792919061492d565b6040516020818303038152906040529150505b919050565b6000600560008473ffffffffffffffffffffffffffffffffffffffff1673ffffffffffffffffffffffffffffffffffffffff16815260200190815260200160002060008373ffffffffffffffffffffffffffffffffffffffff1673ffffffffffffffffffffffffffffffffffffffff16815260200190815260200160002060009054906101000a900460ff16905092915050565b6000339050600c60008273ffffffffffffffffffffffffffffffffffffffff1673ffffffffffffffffffffffffffffffffffffffff16815260200190815260200160002060000160149054906101000a900460ff1615611fc8576040517f08c379a0000000000000000000000000000000000000000000000000000000008152600401611fbf90614a35565b60405180910390fd5b600082511161200c576040517f08c379a000000000000000000000000000000000000000000000000000000000815260040161200390614cf5565b60405180910390fd5b600080905060008090505b835181101561204f5783818151811061202c57fe5b6020026020010151606001511561204257600191505b8080600101915050612017565b5080612090576040517f08c379a000000000000000000000000000000000000000000000000000000000815260040161208790614a95565b60405180910390fd5b6120da600c60008473ffffffffffffffffffffffffffffffffffffffff1673ffffffffffffffffffffffffffffffffffffffff168152602001908152602001600020600101612825565b60008090505b835181101561224857600c60008473ffffffffffffffffffffffffffffffffffffffff1673ffffffffffffffffffffffffffffffffffffffff1681526020019081526020016000206003016000612177600c60008773ffffffffffffffffffffffffffffffffffffffff1673ffffffffffffffffffffffffffffffffffffffff168152602001908152602001600020600101612817565b815260200190815260200160002084828151811061219157fe5b6020026020010151908060018154018082558091505060019003906000526020600020906004020160009091909190915060008201518160000190805190602001906121de9291906135a6565b5060208201518160010190805190602001906121fb9291906135a6565b5060408201518160020190805190602001906122189291906135a6565b5060608201518160030160006101000a81548160ff021916908315150217905550505080806001019150506120e0565b50505050565b612256612432565b73ffffffffffffffffffffffffffffffffffffffff16600a60009054906101000a900473ffffffffffffffffffffffffffffffffffffffff1673ffffffffffffffffffffffffffffffffffffffff16146122e5576040517f08c379a00000000000000000000000000000000000000000000000000000000081526004016122dc90614bd5565b60405180910390fd5b600073ffffffffffffffffffffffffffffffffffffffff168173ffffffffffffffffffffffffffffffffffffffff161415612355576040517f08c379a000000000000000000000000000000000000000000000000000000000815260040161234c90614a55565b60405180910390fd5b8073ffffffffffffffffffffffffffffffffffffffff16600a60009054906101000a900473ffffffffffffffffffffffffffffffffffffffff1673ffffffffffffffffffffffffffffffffffffffff167f8be0079c531659141344cd1fd0a4f28419497f9722a3daafe3b4186f6b6457e060405160405180910390a380600a60006101000a81548173ffffffffffffffffffffffffffffffffffffffff021916908373ffffffffffffffffffffffffffffffffffffffff16021790555050565b600061242b826002612cf290919063ffffffff16565b9050919050565b600033905090565b816004600083815260200190815260200160002060006101000a81548173ffffffffffffffffffffffffffffffffffffffff021916908373ffffffffffffffffffffffffffffffffffffffff160217905550808273ffffffffffffffffffffffffffffffffffffffff166124ad83611775565b73ffffffffffffffffffffffffffffffffffffffff167f8c5be1e5ebec7d5bd14f71427d1e84f3dd0314c0f7b2291e5b200ac8c7c3b92560405160405180910390a45050565b600061250182600001612d0c565b9050919050565b600061251382612415565b612552576040517f08c379a000000000000000000000000000000000000000000000000000000000815260040161254990614af5565b60405180910390fd5b600061255d83611775565b90508073ffffffffffffffffffffffffffffffffffffffff168473ffffffffffffffffffffffffffffffffffffffff1614806125cc57508373ffffffffffffffffffffffffffffffffffffffff166125b4846106dc565b73ffffffffffffffffffffffffffffffffffffffff16145b806125dd57506125dc8185611e9f565b5b91505092915050565b8273ffffffffffffffffffffffffffffffffffffffff1661260682611775565b73ffffffffffffffffffffffffffffffffffffffff161461265c576040517f08c379a000000000000000000000000000000000000000000000000000000000815260040161265390614bf5565b60405180910390fd5b600073ffffffffffffffffffffffffffffffffffffffff168273ffffffffffffffffffffffffffffffffffffffff1614156126cc576040517f08c379a00000000000000000000000000000000000000000000000000000000081526004016126c390614ab5565b60405180910390fd5b6126d7838383612d1d565b6126e260008261243a565b61273381600160008673ffffffffffffffffffffffffffffffffffffffff1673ffffffffffffffffffffffffffffffffffffffff168152602001908152602001600020612d2290919063ffffffff16565b5061278581600160008573ffffffffffffffffffffffffffffffffffffffff1673ffffffffffffffffffffffffffffffffffffffff168152602001908152602001600020612d3c90919063ffffffff16565b5061279c81836002612d569092919063ffffffff16565b50808273ffffffffffffffffffffffffffffffffffffffff168473ffffffffffffffffffffffffffffffffffffffff167fddf252ad1be2c89b69c2b068fc378daa952ba7f163c4a11628f55a4df523b3ef60405160405180910390a4505050565b600061280c8360000183612d8b565b60001c905092915050565b600081600001549050919050565b6001816000016000828254019250508190555050565b600061284682611775565b905061285481600084612d1d565b61285f60008361243a565b600060086000848152602001908152602001600020805460018160011615610100020316600290049050146128ae576008600083815260200190815260200160002060006128ad9190613626565b5b6128ff82600160008473ffffffffffffffffffffffffffffffffffffffff1673ffffffffffffffffffffffffffffffffffffffff168152602001908152602001600020612d2290919063ffffffff16565b50612914826002612df890919063ffffffff16565b5081600073ffffffffffffffffffffffffffffffffffffffff168273ffffffffffffffffffffffffffffffffffffffff167fddf252ad1be2c89b69c2b068fc378daa952ba7f163c4a11628f55a4df523b3ef60405160405180910390a45050565b600073ffffffffffffffffffffffffffffffffffffffff168273ffffffffffffffffffffffffffffffffffffffff1614156129e5576040517f08c379a00000000000000000000000000000000000000000000000000000000081526004016129dc90614b95565b60405180910390fd5b6129ee81612415565b15612a2e576040517f08c379a0000000000000000000000000000000000000000000000000000000008152600401612a2590614a75565b60405180910390fd5b612a3a60008383612d1d565b612a8b81600160008573ffffffffffffffffffffffffffffffffffffffff1673ffffffffffffffffffffffffffffffffffffffff168152602001908152602001600020612d3c90919063ffffffff16565b50612aa281836002612d569092919063ffffffff16565b50808273ffffffffffffffffffffffffffffffffffffffff16600073ffffffffffffffffffffffffffffffffffffffff167fddf252ad1be2c89b69c2b068fc378daa952ba7f163c4a11628f55a4df523b3ef60405160405180910390a45050565b600080600080612b168660000186612e12565b915091508160001c8160001c8090509350935050509250929050565b6000612b45846000018460001b84612e95565b60001c90509392505050565b6000612b5f82600001612f26565b9050919050565b612b718484846125e6565b612b7d84848484612f37565b612bbc576040517f08c379a0000000000000000000000000000000000000000000000000000000008152600401612bb390614a15565b60405180910390fd5b50505050565b60606000821415612c0a576040518060400160405280600181526020017f30000000000000000000000000000000000000000000000000000000000000008152509050612ced565b600082905060005b60008214612c34578080600101915050600a8281612c2c57fe5b049150612c12565b6060816040519080825280601f01601f191660200182016040528015612c695781602001600182028038833980820191505090505b50905060006001830390508593505b60008414612ce557600a8481612c8a57fe5b0660300160f81b82828060019003935081518110612ca457fe5b60200101907effffffffffffffffffffffffffffffffffffffffffffffffffffffffffffff1916908160001a905350600a8481612cdd57fe5b049350612c78565b819450505050505b919050565b6000612d04836000018360001b61309b565b905092915050565b600081600001805490509050919050565b505050565b6000612d34836000018360001b6130be565b905092915050565b6000612d4e836000018360001b6131a6565b905092915050565b6000612d82846000018460001b8473ffffffffffffffffffffffffffffffffffffffff1660001b613216565b90509392505050565b600081836000018054905011612dd6576040517f08c379a0000000000000000000000000000000000000000000000000000000008152600401612dcd906149f5565b60405180910390fd5b826000018281548110612de557fe5b9060005260206000200154905092915050565b6000612e0a836000018360001b6132f2565b905092915050565b60008082846000018054905011612e5e576040517f08c379a0000000000000000000000000000000000000000000000000000000008152600401612e5590614b75565b60405180910390fd5b6000846000018481548110612e6f57fe5b906000526020600020906002020190508060000154816001015492509250509250929050565b60008084600101600085815260200190815260200160002054905060008114158390612ef7576040517f08c379a0000000000000000000000000000000000000000000000000000000008152600401612eee91906149d3565b60405180910390fd5b50846000016001820381548110612f0a57fe5b9060005260206000209060020201600101549150509392505050565b600081600001805490509050919050565b6000612f588473ffffffffffffffffffffffffffffffffffffffff1661340b565b612f655760019050613093565b606061302c63150b7a0260e01b612f7a612432565b888787604051602401612f90949392919061496c565b604051602081830303815290604052907bffffffffffffffffffffffffffffffffffffffffffffffffffffffff19166020820180517bffffffffffffffffffffffffffffffffffffffffffffffffffffffff8381831617835250505050604051806060016040528060328152602001615065603291398773ffffffffffffffffffffffffffffffffffffffff1661341e9092919063ffffffff16565b90506000818060200190516130449190810190613c64565b905063150b7a0260e01b7bffffffffffffffffffffffffffffffffffffffffffffffffffffffff1916817bffffffffffffffffffffffffffffffffffffffffffffffffffffffff191614925050505b949350505050565b600080836001016000848152602001908152602001600020541415905092915050565b6000808360010160008481526020019081526020016000205490506000811461319a576000600182039050600060018660000180549050039050600086600001828154811061310957fe5b906000526020600020015490508087600001848154811061312657fe5b906000526020600020018190555060018301876001016000838152602001908152602001600020819055508660000180548061315e57fe5b600190038181906000526020600020016000905590558660010160008781526020019081526020016000206000905560019450505050506131a0565b60009150505b92915050565b60006131b28383613436565b61320b578260000182908060018154018082558091505060019003906000526020600020016000909190919091505582600001805490508360010160008481526020019081526020016000208190555060019050613210565b600090505b92915050565b60008084600101600085815260200190815260200160002054905060008114156132bd578460000160405180604001604052808681526020018581525090806001815401808255809150506001900390600052602060002090600202016000909190919091506000820151816000015560208201518160010155505084600001805490508560010160008681526020019081526020016000208190555060019150506132eb565b828560000160018303815481106132d057fe5b90600052602060002090600202016001018190555060009150505b9392505050565b600080836001016000848152602001908152602001600020549050600081146133ff576000600182039050600060018660000180549050039050600086600001828154811061333d57fe5b906000526020600020906002020190508087600001848154811061335d57fe5b90600052602060002090600202016000820154816000015560018201548160010155905050600183018760010160008360000154815260200190815260200160002081905550866000018054806133b057fe5b6001900381819060005260206000209060020201600080820160009055600182016000905550509055866001016000878152602001908152602001600020600090556001945050505050613405565b60009150505b92915050565b600080823b905060008111915050919050565b606061342d8484600085613459565b90509392505050565b600080836001016000848152602001908152602001600020541415905092915050565b60606134648561340b565b6134a3576040517f08c379a000000000000000000000000000000000000000000000000000000000815260040161349a90614c95565b60405180910390fd5b600060608673ffffffffffffffffffffffffffffffffffffffff1685876040516134cd91906148ff565b60006040518083038185875af1925050503d806000811461350a576040519150601f19603f3d011682016040523d82523d6000602084013e61350f565b606091505b50915091508115613524578092505050613574565b6000815111156135375780518082602001fd5b836040517f08c379a000000000000000000000000000000000000000000000000000000000815260040161356b91906149d3565b60405180910390fd5b949350505050565b60405180608001604052806060815260200160608152602001606081526020016000151581525090565b828054600181600116156101000203166002900490600052602060002090601f016020900481019282601f106135e757805160ff1916838001178555613615565b82800160010185558215613615579182015b828111156136145782518255916020019190600101906135f9565b5b509050613622919061366e565b5090565b50805460018160011615610100020316600290046000825580601f1061364c575061366b565b601f01602090049060005260206000209081019061366a919061366e565b5b50565b61369091905b8082111561368c576000816000905550600101613674565b5090565b90565b6000813590506136a281614fda565b92915050565b600082601f8301126136b957600080fd5b81356136cc6136c782614d8d565b614d60565b9150818183526020840193506020810190508360005b8381101561371257813586016136f888826138a1565b8452602084019350602083019250506001810190506136e2565b5050505092915050565b600082601f83011261372d57600080fd5b813561374061373b82614db5565b614d60565b9150818183526020840193506020810190508360005b83811015613786578135860161376c888261395d565b845260208401935060208301925050600181019050613756565b5050505092915050565b60008135905061379f81614ff1565b92915050565b6000813590506137b481615008565b92915050565b6000813590506137c98161501f565b92915050565b6000815190506137de8161501f565b92915050565b600082601f8301126137f557600080fd5b813561380861380382614ddd565b614d60565b9150808252602083016020830185838301111561382457600080fd5b61382f838284614f87565b50505092915050565b60008135905061384781615036565b92915050565b600082601f83011261385e57600080fd5b813561387161386c82614e09565b614d60565b9150808252602083016020830185838301111561388d57600080fd5b613898838284614f87565b50505092915050565b6000608082840312156138b357600080fd5b6138bd6080614d60565b9050600082013567ffffffffffffffff8111156138d957600080fd5b6138e58482850161384d565b600083015250602082013567ffffffffffffffff81111561390557600080fd5b6139118482850161384d565b602083015250604082013567ffffffffffffffff81111561393157600080fd5b61393d8482850161384d565b604083015250606061395184828501613790565b60608301525092915050565b600060a0828403121561396f57600080fd5b61397960a0614d60565b90506000613989848285016137a5565b600083015250602061399d848285016137a5565b602083015250604082013567ffffffffffffffff8111156139bd57600080fd5b6139c98482850161384d565b60408301525060606139dd84828501613838565b60608301525060806139f1848285016139fd565b60808301525092915050565b600081359050613a0c8161504d565b92915050565b600060208284031215613a2457600080fd5b6000613a3284828501613693565b91505092915050565b60008060408385031215613a4e57600080fd5b6000613a5c85828601613693565b9250506020613a6d85828601613693565b9150509250929050565b600080600060608486031215613a8c57600080fd5b6000613a9a86828701613693565b9350506020613aab86828701613693565b9250506040613abc868287016139fd565b9150509250925092565b60008060008060808587031215613adc57600080fd5b6000613aea87828801613693565b9450506020613afb87828801613693565b9350506040613b0c878288016139fd565b925050606085013567ffffffffffffffff811115613b2957600080fd5b613b35878288016137e4565b91505092959194509250565b60008060408385031215613b5457600080fd5b6000613b6285828601613693565b9250506020613b7385828601613790565b9150509250929050565b60008060408385031215613b9057600080fd5b6000613b9e85828601613693565b9250506020613baf858286016139fd565b9150509250929050565b600060208284031215613bcb57600080fd5b600082013567ffffffffffffffff811115613be557600080fd5b613bf1848285016136a8565b91505092915050565b600060208284031215613c0c57600080fd5b600082013567ffffffffffffffff811115613c2657600080fd5b613c328482850161371c565b91505092915050565b600060208284031215613c4d57600080fd5b6000613c5b848285016137ba565b91505092915050565b600060208284031215613c7657600080fd5b6000613c84848285016137cf565b91505092915050565b600060208284031215613c9f57600080fd5b6000613cad848285016139fd565b91505092915050565b6000613cc2838361487f565b905092915050565b613cd381614eff565b82525050565b613ce281614eed565b82525050565b6000613cf382614e5a565b613cfd8185614e93565b935083602082028501613d0f85614e35565b8060005b85811015613d4b5784840389528151613d2c8582613cb6565b9450613d3783614e86565b925060208a01995050600181019050613d13565b50829750879550505050505092915050565b613d6681614f11565b82525050565b613d7581614f11565b82525050565b6000613d8682614e65565b613d908185614ea4565b9350613da0818560208601614f96565b613da981614fc9565b840191505092915050565b6000613dbf82614e65565b613dc98185614eb5565b9350613dd9818560208601614f96565b80840191505092915050565b6000613df082614e7b565b613dfa8185614ed1565b9350613e0a818560208601614f96565b613e1381614fc9565b840191505092915050565b6000613e2982614e7b565b613e338185614ee2565b9350613e43818560208601614f96565b80840191505092915050565b6000613e5a82614e70565b613e648185614ec0565b9350613e74818560208601614f96565b613e7d81614fc9565b840191505092915050565b6000613e9382614e70565b613e9d8185614ee2565b9350613ead818560208601614f96565b80840191505092915050565b600081546001811660008114613ed65760018114613efb57613f3f565b607f6002830416613ee78187614ee2565b955060ff1983168652808601935050613f3f565b60028204613f098187614ee2565b9550613f1485614e45565b60005b82811015613f3657815481890152600182019150602081019050613f17565b82880195505050505b505092915050565b6000613f54602283614ed1565b91507f456e756d657261626c655365743a20696e646578206f7574206f6620626f756e60008301527f64730000000000000000000000000000000000000000000000000000000000006020830152604082019050919050565b6000613fba603283614ed1565b91507f4552433732313a207472616e7366657220746f206e6f6e20455243373231526560008301527f63656976657220696d706c656d656e74657200000000000000000000000000006020830152604082019050919050565b6000614020602783614ed1565b91507f497373756572207769746820746869732061646472657373206e6f742072656760008301527f69737465726564000000000000000000000000000000000000000000000000006020830152604082019050919050565b6000614086602683614ed1565b91507f4f776e61626c653a206e6577206f776e657220697320746865207a65726f206160008301527f64647265737300000000000000000000000000000000000000000000000000006020830152604082019050919050565b60006140ec601c83614ed1565b91507f4552433732313a20746f6b656e20616c7265616479206d696e746564000000006000830152602082019050919050565b600061412c602983614ed1565b91507f4e6f20726f6f74206174747269627574652073706563696669656420696e207460008301527f686520736368656d6500000000000000000000000000000000000000000000006020830152604082019050919050565b6000614192602483614ed1565b91507f4552433732313a207472616e7366657220746f20746865207a65726f2061646460008301527f72657373000000000000000000000000000000000000000000000000000000006020830152604082019050919050565b60006141f8601983614ed1565b91507f4552433732313a20617070726f766520746f2063616c6c6572000000000000006000830152602082019050919050565b6000614238602c83614ed1565b91507f4552433732313a206f70657261746f7220717565727920666f72206e6f6e657860008301527f697374656e7420746f6b656e00000000000000000000000000000000000000006020830152604082019050919050565b600061429e602b83614ed1565b91507f49737375657220776974682074686973206164647265737320616c726561647960008301527f20726567697374657265640000000000000000000000000000000000000000006020830152604082019050919050565b6000614304603883614ed1565b91507f4552433732313a20617070726f76652063616c6c6572206973206e6f74206f7760008301527f6e6572206e6f7220617070726f76656420666f7220616c6c00000000000000006020830152604082019050919050565b600061436a602a83614ed1565b91507f4552433732313a2062616c616e636520717565727920666f7220746865207a6560008301527f726f2061646472657373000000000000000000000000000000000000000000006020830152604082019050919050565b60006143d0602283614ed1565b91507f456e756d657261626c654d61703a20696e646578206f7574206f6620626f756e60008301527f64730000000000000000000000000000000000000000000000000000000000006020830152604082019050919050565b6000614436602083614ed1565b91507f4552433732313a206d696e7420746f20746865207a65726f20616464726573736000830152602082019050919050565b6000614476602c83614ed1565b91507f4552433732313a20617070726f76656420717565727920666f72206e6f6e657860008301527f697374656e7420746f6b656e00000000000000000000000000000000000000006020830152604082019050919050565b60006144dc602083614ed1565b91507f4f776e61626c653a2063616c6c6572206973206e6f7420746865206f776e65726000830152602082019050919050565b600061451c602983614ed1565b91507f4552433732313a207472616e73666572206f6620746f6b656e2074686174206960008301527f73206e6f74206f776e00000000000000000000000000000000000000000000006020830152604082019050919050565b6000614582602f83614ed1565b91507f4552433732314d657461646174613a2055524920717565727920666f72206e6f60008301527f6e6578697374656e7420746f6b656e00000000000000000000000000000000006020830152604082019050919050565b60006145e8604483614ed1565b91507f526571756573746564206174747269627574657320646f6573206e6f74206d6160008301527f746368207468652063757272656e7420736368656d65206f662074686520697360208301527f73756572000000000000000000000000000000000000000000000000000000006040830152606082019050919050565b6000614674602183614ed1565b91507f4552433732313a20617070726f76616c20746f2063757272656e74206f776e6560008301527f72000000000000000000000000000000000000000000000000000000000000006020830152604082019050919050565b60006146da603183614ed1565b91507f4552433732313a207472616e736665722063616c6c6572206973206e6f74206f60008301527f776e6572206e6f7220617070726f7665640000000000000000000000000000006020830152604082019050919050565b6000614740601d83614ed1565b91507f416464726573733a2063616c6c20746f206e6f6e2d636f6e74726163740000006000830152602082019050919050565b6000614780602383614ed1565b91507f497373756572206469646e277420646566696e6520616e7920736368656d652060008301527f79657400000000000000000000000000000000000000000000000000000000006020830152604082019050919050565b60006147e6603083614ed1565b91507f4552433732314275726e61626c653a2063616c6c6572206973206e6f74206f7760008301527f6e6572206e6f7220617070726f766564000000000000000000000000000000006020830152604082019050919050565b600061484c601e83614ed1565b91507f696e70757420617272617973206d757374206265206e6f7420656d70747900006000830152602082019050919050565b6000608083016000830151848203600086015261489c8282613e4f565b915050602083015184820360208601526148b68282613e4f565b915050604083015184820360408601526148d08282613e4f565b91505060608301516148e56060860182613d5d565b508091505092915050565b6148f981614f7d565b82525050565b600061490b8284613db4565b915081905092915050565b60006149228284613e88565b915081905092915050565b60006149398285613eb9565b91506149458284613e1e565b91508190509392505050565b60006020820190506149666000830184613cd9565b92915050565b60006080820190506149816000830187613cca565b61498e6020830186613cd9565b61499b60408301856148f0565b81810360608301526149ad8184613d7b565b905095945050505050565b60006020820190506149cd6000830184613d6c565b92915050565b600060208201905081810360008301526149ed8184613de5565b905092915050565b60006020820190508181036000830152614a0e81613f47565b9050919050565b60006020820190508181036000830152614a2e81613fad565b9050919050565b60006020820190508181036000830152614a4e81614013565b9050919050565b60006020820190508181036000830152614a6e81614079565b9050919050565b60006020820190508181036000830152614a8e816140df565b9050919050565b60006020820190508181036000830152614aae8161411f565b9050919050565b60006020820190508181036000830152614ace81614185565b9050919050565b60006020820190508181036000830152614aee816141eb565b9050919050565b60006020820190508181036000830152614b0e8161422b565b9050919050565b60006020820190508181036000830152614b2e81614291565b9050919050565b60006020820190508181036000830152614b4e816142f7565b9050919050565b60006020820190508181036000830152614b6e8161435d565b9050919050565b60006020820190508181036000830152614b8e816143c3565b9050919050565b60006020820190508181036000830152614bae81614429565b9050919050565b60006020820190508181036000830152614bce81614469565b9050919050565b60006020820190508181036000830152614bee816144cf565b9050919050565b60006020820190508181036000830152614c0e8161450f565b9050919050565b60006020820190508181036000830152614c2e81614575565b9050919050565b60006020820190508181036000830152614c4e816145db565b9050919050565b60006020820190508181036000830152614c6e81614667565b9050919050565b60006020820190508181036000830152614c8e816146cd565b9050919050565b60006020820190508181036000830152614cae81614733565b9050919050565b60006020820190508181036000830152614cce81614773565b9050919050565b60006020820190508181036000830152614cee816147d9565b9050919050565b60006020820190508181036000830152614d0e8161483f565b9050919050565b6000602082019050614d2a60008301846148f0565b92915050565b6000604082019050614d4560008301856148f0565b8181036020830152614d578184613ce8565b90509392505050565b6000604051905081810181811067ffffffffffffffff82111715614d8357600080fd5b8060405250919050565b600067ffffffffffffffff821115614da457600080fd5b602082029050602081019050919050565b600067ffffffffffffffff821115614dcc57600080fd5b602082029050602081019050919050565b600067ffffffffffffffff821115614df457600080fd5b601f19601f8301169050602081019050919050565b600067ffffffffffffffff821115614e2057600080fd5b601f19601f8301169050602081019050919050565b6000819050602082019050919050565b60008190508160005260206000209050919050565b600081519050919050565b600081519050919050565b600081519050919050565b600081519050919050565b6000602082019050919050565b600082825260208201905092915050565b600082825260208201905092915050565b600081905092915050565b600082825260208201905092915050565b600082825260208201905092915050565b600081905092915050565b6000614ef882614f5d565b9050919050565b6000614f0a82614f5d565b9050919050565b60008115159050919050565b6000819050919050565b60007fffffffff0000000000000000000000000000000000000000000000000000000082169050919050565b6000819050919050565b600073ffffffffffffffffffffffffffffffffffffffff82169050919050565b6000819050919050565b82818337600083830152505050565b60005b83811015614fb4578082015181840152602081019050614f99565b83811115614fc3576000848401525b50505050565b6000601f19601f8301169050919050565b614fe381614eed565b8114614fee57600080fd5b50565b614ffa81614f11565b811461500557600080fd5b50565b61501181614f1d565b811461501c57600080fd5b50565b61502881614f27565b811461503357600080fd5b50565b61503f81614f53565b811461504a57600080fd5b50565b61505681614f7d565b811461506157600080fd5b5056fe4552433732313a207472616e7366657220746f206e6f6e20455243373231526563656976657220696d706c656d656e7465724552433732313a206f776e657220717565727920666f72206e6f6e6578697374656e7420746f6b656ea264697066735822122026a8627aa196e448e40db92ed30344f839bfe52ba8ca369586acadfb582ed0f264736f6c63430006020033",
  "source": "// SPDX-License-Identifier: MIT\r\npragma solidity ^0.6.2;\r\npragma experimental ABIEncoderV2;\r\n\r\nimport '@openzeppelin/contracts/token/ERC721/ERC721.sol';\r\nimport '@openzeppelin/contracts/token/ERC721/ERC721Burnable.sol';\r\nimport \"@openzeppelin/contracts/access/Ownable.sol\";\r\nimport \"@openzeppelin/contracts/utils/Counters.sol\";\r\n\r\ncontract O10Identity is ERC721, ERC721Burnable, Ownable {\r\n    using Counters for Counters.Counter;\r\n\r\n    struct SchemeItem {\r\n        string SchemeName;\r\n    }\r\n    \r\n    struct AttributeDefinition {\r\n        string AttributeName;\r\n        string AttributeScheme;\r\n        string Alias;\r\n        bool IsRoot;\r\n    }\r\n\r\n    struct AttributeRecord {\r\n        bytes32 BindingCommitment;\r\n        bytes32 AssetCommitment;\r\n        string AttributeName;\r\n        int Version;\r\n        uint256 AttributeId;\r\n    }\r\n\r\n    struct Issuer {\r\n        address payable Address;\r\n        bool IsRegistered;\r\n    \r\n        Counters.Counter DefinitionVersion;\r\n        Counters.Counter AttributeId;\r\n        \r\n        // version => attribute definitions\r\n        mapping(uint256 => AttributeDefinition[]) Definitions;\r\n        \r\n        AttributeRecord[] Attributes;\r\n\r\n        mapping(uint256 => AttributeRecord) TokenIdToAttribute;\r\n        mapping(bytes32 => AttributeRecord) AssetCommitmentToAttribute; // For validating that is not burned\r\n        mapping(bytes32 => AttributeRecord) BindingCommitmentToAttribute; // For burning\r\n    }\r\n\r\n    constructor(string memory name, string memory symbol) ERC721(name, symbol) public {}\r\n\r\n    SchemeItem[] _schemeItems;\r\n\r\n    mapping(address => Issuer) _issuers;\r\n\r\n    Counters.Counter private _tokenId;\r\n\r\n    function register() public payable {\r\n        address issuerAddr = msg.sender;\r\n        require(!_issuers[issuerAddr].IsRegistered, \"Issuer with this address already registered\");\r\n        Issuer storage issuer = _issuers[issuerAddr];\r\n        issuer.IsRegistered = true;\r\n    }\r\n\r\n    function setScheme(AttributeDefinition[] memory definitions) public payable {\r\n        address issuerAddr = msg.sender;\r\n        require(!_issuers[issuerAddr].IsRegistered, \"Issuer with this address not registered\");\r\n        require(definitions.length > 0, \"input arrays must be not empty\");\r\n\r\n        bool rootFound = false;\r\n        for (uint256 i = 0; i < definitions.length; i++) {\r\n            if(definitions[i].IsRoot) {\r\n                rootFound = true;\r\n            }\r\n        }\r\n\r\n        require(rootFound, \"No root attribute specified in the scheme\");\r\n\r\n        _issuers[issuerAddr].DefinitionVersion.increment();\r\n        for (uint256 i = 0; i < definitions.length; i++) {\r\n            _issuers[issuerAddr].Definitions[_issuers[issuerAddr].DefinitionVersion.current()].push(definitions[i]);\r\n        }\r\n    }\r\n\r\n    // function setScheme(address issuerAddr, bool[] memory isRoot, string[] memory schemeNames, string[] memory attributeNames, string[] memory aliases) public payable {\r\n    //     require(!_issuers[issuerAddr].IsRegistered, \"Issuer with this address not registered\");\r\n    //     require(isRoot.length > 0 && schemeNames.length > 0 && attributeNames.length > 0 && aliases.length > 0, \"input arrays must be not empty\");\r\n    //     require(isRoot.length == schemeNames.length && isRoot.length == attributeNames.length && isRoot.length == aliases.length, \"input arrays must be of the same size\");\r\n\r\n    //     bool rootFound = false;\r\n    //     for (uint256 i = 0; i < isRoot.length; i++) {\r\n    //         if(isRoot[i]) {\r\n    //             rootFound = true;\r\n    //         }\r\n    //     }\r\n\r\n    //     require(rootFound, \"No root attribute specified in the scheme\");\r\n\r\n    //     _issuers[issuerAddr].DefinitionVersion.increment();\r\n    //     for (uint256 i = 0; i < isRoot.length; i++) {\r\n    //         _issuers[issuerAddr].Definitions[_issuers[issuerAddr].DefinitionVersion.current()].push(AttributeDefinition({IsRoot: isRoot[i], AttributeScheme: schemeNames[i], AttributeName: attributeNames[i], Alias: aliases[i]}));\r\n    //     }\r\n    // }\r\n\r\n    function getScheme(address issuerAddr) public payable returns(uint256, AttributeDefinition[] memory) {\r\n        require(!_issuers[issuerAddr].IsRegistered, \"Issuer with this address not registered\");\r\n        require(_issuers[issuerAddr].DefinitionVersion.current() > 0, \"Issuer didn't define any scheme yet\");\r\n\r\n        uint256 idx = _issuers[issuerAddr].DefinitionVersion.current();\r\n        AttributeDefinition[] memory definitions = new AttributeDefinition[](_issuers[issuerAddr].Definitions[idx].length);\r\n\r\n        for (uint256 i = 0; i < definitions.length; i++) {\r\n            definitions[i] = _issuers[issuerAddr].Definitions[idx][i];\r\n        }\r\n\r\n        return (idx, definitions);\r\n    }\r\n\r\n    // function getScheme(address issuerAddr) public payable returns(uint256, bool[] memory, string[] memory, string[] memory, string[] memory) {\r\n    //     require(!_issuers[issuerAddr].IsRegistered, \"Issuer with this address not registered\");\r\n    //     require(_issuers[issuerAddr].DefinitionVersion.current() > 0, \"Issuer didn't define any scheme yet\");\r\n\r\n    //     uint256 idx = _issuers[issuerAddr].DefinitionVersion.current();\r\n    //     AttributeDefinition[] storage definitions = _issuers[issuerAddr].Definitions[idx];\r\n\r\n    //     bool[] memory isRoot = new bool[](definitions.length);\r\n    //     string[] memory schemeNames = new string[](definitions.length);\r\n    //     string[] memory attributeNames = new string[](definitions.length);\r\n    //     string[] memory attributeAliases = new string[](definitions.length);\r\n\r\n    //     for (uint256 i = 0; i < definitions.length; i++) {\r\n    //         isRoot[i] = definitions[i].IsRoot;\r\n    //         schemeNames[i] = definitions[i].AttributeScheme;\r\n    //         attributeNames[i] = definitions[i].AttributeName;\r\n    //         attributeAliases[i] = definitions[i].Alias;\r\n    //     }\r\n\r\n    //     return (idx, isRoot, schemeNames, attributeNames, attributeAliases);\r\n    // }\r\n\r\n    function issueAttributes(AttributeRecord[] memory attributeRecords) public payable {\r\n        address issuerAddr = msg.sender;\r\n        require(!_issuers[issuerAddr].IsRegistered, \"Issuer with this address not registered\");\r\n        require(_issuers[issuerAddr].DefinitionVersion.current() > 0, \"Issuer didn't define any scheme yet\");\r\n\r\n        uint256 idx = _issuers[issuerAddr].DefinitionVersion.current();\r\n        AttributeDefinition[] memory definitions = new AttributeDefinition[](_issuers[issuerAddr].Definitions[idx].length);\r\n\r\n        for (uint256 i = 0; i < definitions.length; i++) {\r\n            bool found = false;\r\n\r\n            for (uint256 j = 0; j < attributeRecords.length; j++) {\r\n                if(keccak256(abi.encodePacked(attributeRecords[j].AttributeName)) == keccak256(abi.encodePacked(definitions[i].AttributeName))) {\r\n                    found = true;\r\n                }\r\n            }\r\n\r\n            require(found, \"Requested attributes does not match the current scheme of the issuer\");\r\n        }\r\n\r\n        for (uint256 i = 0; i < attributeRecords.length; i++) {\r\n            _issuers[issuerAddr].AttributeId.increment();\r\n\r\n            if(_issuers[issuerAddr].BindingCommitmentToAttribute[attributeRecords[i].BindingCommitment].AttributeId > 0) {\r\n                _burn(_issuers[issuerAddr].BindingCommitmentToAttribute[attributeRecords[i].BindingCommitment].AttributeId);\r\n            }\r\n\r\n            uint256 attributeId = _issuers[issuerAddr].AttributeId.current();\r\n\r\n            attributeRecords[i].AttributeId = attributeId;\r\n            _issuers[issuerAddr].Attributes.push(attributeRecords[i]);\r\n            _issuers[issuerAddr].TokenIdToAttribute[attributeId] = attributeRecords[i];\r\n            _issuers[issuerAddr].AssetCommitmentToAttribute[attributeRecords[i].AssetCommitment] = attributeRecords[i];\r\n            _issuers[issuerAddr].BindingCommitmentToAttribute[attributeRecords[i].BindingCommitment] = attributeRecords[i];\r\n\r\n            _mint(issuerAddr, attributeId);\r\n        }\r\n\r\n    }\r\n}",
  "sourcePath": "C:/Dev/O10/Integrations/Rsk/Contracts/O10Idp/contracts/O10Identity.sol",
  "compiler": {
    "name": "solc",
    "version": "0.6.2+commit.bacdbe57.Emscripten.clang"
  },
  "schemaVersion": "3.3.0",
  "updatedAt": "2020-10-11T00:24:43.973Z",
  "networkType": "ethereum",
  "devdoc": {
    "methods": {
      "approve(address,uint256)": {
        "details": "See {IERC721-approve}."
      },
      "balanceOf(address)": {
        "details": "See {IERC721-balanceOf}."
      },
      "baseURI()": {
        "details": "Returns the base URI set via {_setBaseURI}. This will be automatically added as a prefix in {tokenURI} to each token's URI, or to the token ID if no specific URI is set for that token ID."
      },
      "burn(uint256)": {
        "details": "Burns `tokenId`. See {ERC721-_burn}.     * Requirements:     * - The caller must own `tokenId` or be an approved operator."
      },
      "getApproved(uint256)": {
        "details": "See {IERC721-getApproved}."
      },
      "isApprovedForAll(address,address)": {
        "details": "See {IERC721-isApprovedForAll}."
      },
      "name()": {
        "details": "See {IERC721Metadata-name}."
      },
      "owner()": {
        "details": "Returns the address of the current owner."
      },
      "ownerOf(uint256)": {
        "details": "See {IERC721-ownerOf}."
      },
      "renounceOwnership()": {
        "details": "Leaves the contract without owner. It will not be possible to call `onlyOwner` functions anymore. Can only be called by the current owner.     * NOTE: Renouncing ownership will leave the contract without an owner, thereby removing any functionality that is only available to the owner."
      },
      "safeTransferFrom(address,address,uint256)": {
        "details": "See {IERC721-safeTransferFrom}."
      },
      "safeTransferFrom(address,address,uint256,bytes)": {
        "details": "See {IERC721-safeTransferFrom}."
      },
      "setApprovalForAll(address,bool)": {
        "details": "See {IERC721-setApprovalForAll}."
      },
      "supportsInterface(bytes4)": {
        "details": "See {IERC165-supportsInterface}.     * Time complexity O(1), guaranteed to always use less than 30 000 gas."
      },
      "symbol()": {
        "details": "See {IERC721Metadata-symbol}."
      },
      "tokenByIndex(uint256)": {
        "details": "See {IERC721Enumerable-tokenByIndex}."
      },
      "tokenOfOwnerByIndex(address,uint256)": {
        "details": "See {IERC721Enumerable-tokenOfOwnerByIndex}."
      },
      "tokenURI(uint256)": {
        "details": "See {IERC721Metadata-tokenURI}."
      },
      "totalSupply()": {
        "details": "See {IERC721Enumerable-totalSupply}."
      },
      "transferFrom(address,address,uint256)": {
        "details": "See {IERC721-transferFrom}."
      },
      "transferOwnership(address)": {
        "details": "Transfers ownership of the contract to a new account (`newOwner`). Can only be called by the current owner."
      }
    }
  },
  "userdoc": {
    "methods": {}
  }
}